S01600002E2F44656275672F5254532D4C61622E73313936
S3152000000000BFDFF814D003F03EFA04F0C7FE03F079
S3152000001055BAFEE700BF000000C0012080B582B0BF
S3152000002000AF78607B680E4A93420AD101214FF0D7
S31520000030007002F02DFF00214FF0007002F028FF23
S3152000004009E001214FF0806002F022FF00214FF0ED
S31520000050806002F01DFF00BF0837BD4680BD00BF8F
S315200000600064004080B485B000AF7860396000231A
S31520000070FB730023BB607B681B6823F002027B684E
S315200000801A607B681B6843F001027B681A6002E0F5
S31520000090BB680133BB607B685B6803F00103012BFF
S315200000A004D0BB684FF6FF729342F1D17B685B6840
S315200000B003F00103012B02D00023FB739CE03B6875
S315200000C09B79012B06D17B681B6843F080027B68F5
S315200000D01A6005E07B681B6823F080027B681A6043
S315200000E03B68DB79012B06D17B681B6843F0400215
S315200000F07B681A6005E07B681B6823F040027B68FA
S315200001001A603B681B7A012B06D17B681B6843F07B
S3152000011020027B681A6005E07B681B6823F02002BA
S315200001207B681A603B685B7A012B06D17B681B686B
S3152000013043F010027B681A6005E07B681B6823F099
S3152000014010027B681A603B689B7A012B06D17B687C
S315200001501B6843F008027B681A6005E07B681B6811
S3152000016023F008027B681A603B68DB7A012B06D1F4
S315200001707B681B6843F004027B681A6005E07B6895
S315200001801B6823F004027B681A603B689B789A07F9
S315200001903B68DB781B061A433B681B791B041A4312
S315200001A03B685B791B051A433B681B88013B1A4356
S315200001B07B68DA617B681B6823F001027B681A6022
S315200001C00023BB6002E0BB680133BB607B685B68D1
S315200001D003F00103012B04D1BB684FF6FF72934253
S315200001E0F1D17B685B6803F00103012B02D1002368
S315200001F0FB7301E00123FB73FB7B18461437BD46D6
S315200002005DF8047B704790B484B000AF786000231B
S31520000210FB607B689B7A1A4601239340FB605A4B0E
S31520000220D3F80032584A43F00103C2F80032564B45
S31520000230D3F81C22FB68DB4353491340C1F81C3218
S315200002407B681B7B002B29D14F4BD3F80C22FB68F4
S31520000250DB434D491340C1F80C327B68DB881B0415
S315200002607A685288144648497A68927A104643EA50
S31520000270040200F1480341F833207B689B881B0465
S315200002807A681288144640497A68927A104643EA78
S31520000290040200F14803DB000B445A607B681B7B99
S315200002A0012B28D1384BD3F80C223749FB6813434E
S315200002B0C1F80C327B681B881B047A685288144666
S315200002C031497A68927A104643EA040200F14803DB
S315200002D041F833207B689B881B047A68D2881446B1
S315200002E029497A68927A104643EA040200F14803C3
S315200002F0DB000B445A607B68DB7A002B09D1224B4A
S31520000300D3F80422FB68DB431F491340C1F80432AB
S3152000031007E01D4BD3F804221B49FB681343C1F8A1
S3152000032004327B681B89002B08D1174BD3F8142283
S31520000330FB68DB4314491340C1F814327B681B89E0
S31520000340012B07D1104BD3F814220F49FB68134316
S31520000350C1F814327B685B7B012B07D10A4BD3F89B
S315200003601C220949FB681343C1F81C32064BD3F8FB
S315200003700032054A23F00103C2F8003200BF1037CD
S31520000380BD4690BC704700BF0064004080B483B077
S3152000039000AF78607B6800229A717B680022DA7150
S315200003A07B6800221A727B6800225A727B680022C0
S315200003B09A727B680022DA727B6800229A707B68C8
S315200003C00022DA707B6803221A717B6802225A7136
S315200003D07B6801221A8000BF0C37BD465DF8047B7E
S315200003E0704780B483B000AF0346FB71144BD3F83B
S315200003F00032134A43F00103C2F80032104BD3F8FF
S3152000040000320F4A23F47C5323F00E03C2F8003245
S315200004100B4BD3F80022FB791B0209491343C1F881
S315200004200032074BD3F80032054A23F00103C2F805
S31520000430003200BF0C37BD465DF8047B704700BF15
S315200004400064004080B483B000AF78600B46FB7038
S31520000450FB78002B06D07B681B6843F480327B68D0
S315200004601A6005E07B681B6823F480327B681A607B
S3152000047000BF0C37BD465DF8047B704780B483B05F
S3152000048000AF78600B46FB70FB78002B1ED07B6894
S315200004901B6843F080027B681A607B68D3F884313E
S315200004A043F480727B68C3F884217B68D3F8943147
S315200004B043F480727B68C3F894217B68D3F8A43117
S315200004C043F480727B68C3F8A4211DE07B681B6817
S315200004D023F080027B681A607B68D3F8843123F48A
S315200004E080727B68C3F884217B68D3F8943123F427
S315200004F080727B68C3F894217B68D3F8A43123F4F7
S3152000050080727B68C3F8A42100BF0C37BD465DF816
S31520000510047B704780B485B000AF786039600023D3
S31520000520FB737B689B6803F08063B3F1806F02D115
S315200005300023FB7315E07B689B6803F00063B3F12F
S31520000540006F02D10123FB730BE07B689B6803F0ED
S315200005508053B3F1805F02D10223FB7301E00423B1
S31520000560FB73FB7B042B00F09F80FB7B7A681833A0
S315200005701B0113441A68FB7B02F0010279681833C9
S315200005801B010B441A603B681B7A002B13D1FB7BA3
S315200005907A6818331B01134419683B681B685B058E
S315200005A03A68527A1A43FB7B0A43796818331B014F
S315200005B00B441A6015E0FB7B7A6818331B01134441
S315200005C019683B685B68DB003A68127A13433A681D
S315200005D0527A1A43FB7B0A43796818331B010B4472
S315200005E01A603B689B7A03F00F03DAB23B689A7273
S315200005F0FB7B7A6818331B01134404331A68FB7B90
S3152000060022F00F02796818331B010B4404331A6059
S31520000610FB7B7A6818331B01134404331A683B6842
S315200006209B7A1946FB7B0A43796818331B010B44D6
S3152000063004331A603B689B7B1A063B685B7B1B0472
S315200006401A433B681B7B1B021A433B68DB7A19461D
S31520000650FB7B0A4379681B010B4403F5C4731A60BC
S315200006603B689B7C1A063B685B7C1B041A433B68F1
S315200006701B7C1B021A433B68DB7B1946FB7B0A4328
S3152000068079681B010B4403F5C6731A60FB7B7A68F5
S3152000069018331B0113441A68FB7B42F00102796868
S315200006A018331B010B441A60FB7B18461437BD46D2
S315200006B05DF8047B704780B485B000AF78600B4648
S315200006C0FB700023FB60FB78012B09D0022B0DD099
S315200006D0002B11D17B689A68294B1340FB600EE0F2
S315200006E07B689A68274B1340FB6008E07B689A6812
S315200006F0254B1340FB6002E00023FB6000BFFB6834
S31520000700224A934222D0FB68204A93420BD8FB68A8
S315200007101F4A934217D0FB68194A93421CD0FB68A4
S31520000720002B0DD021E0FB681A4A934211D0FB68BA
S31520000730154A934216D0FB68124A93420FD014E012
S315200007400223FB6014E00023FB6011E00023FB6022
S315200007500EE00023FB600BE00123FB6008E0012391
S31520000760FB6005E00123FB6002E00023FB6000BF85
S31520000770FB68DBB218461437BD465DF8047B70472C
S315200007800300000400030008000003100001000815
S31520000790010000040000011080B483B000AF78602F
S315200007A00B46FB70FB78012B0AD0022B0FD0002BB7
S315200007B014D17B689B6843F080027B689A600EE0C8
S315200007C07B689B6843F400427B689A6007E07B68FD
S315200007D09B6843F400027B689A6000E000BF00BF7C
S315200007E00C37BD465DF8047B704780B485B000AFFA
S315200007F0F8600B467A60FB72FB7AFA681B331B01A2
S3152000080013441B68DBB203F00403DAB27B681A7266
S315200008107B681B7A002B0BD1FB7AFA681B331B01F2
S3152000082013441B685B0DC3F30A027B681A600AE057
S31520000830FB7AFA681B331B0113441B68DB0823F081
S3152000084060427B685A60FB7AFA681B331B011344AB
S315200008501B68DBB203F00203DAB27B685A72FB7ABA
S31520000860FA681B331B01134404331B68DBB203F005
S315200008700F03DAB27B689A72FB7AFA681B331B0184
S31520000880134404331B681B0ADAB27B68DA74FB7ADA
S31520000890FA681B01134403F5DC731B68DAB27B6824
S315200008A0DA72FB7AFA681B01134403F5DC731B68C2
S315200008B01B0ADAB27B681A73FB7AFA681B011344A7
S315200008C003F5DC731B681B0CDAB27B685A73FB7A60
S315200008D0FA681B01134403F5DC731B681B0EDAB29E
S315200008E07B689A73FB7AFA681B01134403F5DE735F
S315200008F01B68DAB27B68DA73FB7AFA681B01134449
S3152000090003F5DE731B681B0ADAB27B681A74FB7A5E
S31520000910FA681B01134403F5DE731B681B0CDAB25D
S315200009207B685A74FB7AFA681B01134403F5DE735D
S315200009301B681B0EDAB27B689A74FB7A002B06D1F1
S31520000940FB68DB6843F02002FB68DA6005E0FB68A1
S315200009501B6943F02002FB681A6100BF1437BD46AD
S315200009605DF8047B704780B483B000AF78600B4697
S31520000970FB70FB78002B06D17B68DB6843F02002F6
S315200009807B68DA6005E07B681B6943F020027B68A0
S315200009901A6100BF0C37BD465DF8047B704780B4F2
S315200009A085B000AF78600B46FB700023FB73FB78A5
S315200009B0002B06D17B68DB68DBB203F00303FB73F5
S315200009C00BE0FB78012B06D17B681B69DBB203F0B9
S315200009D00303FB7301E00023FB73FB7B18461437EC
S315200009E0BD465DF8047B704780B485B000AF786063
S315200009F00B46FB700023FB734FF6FF73BB60FB783F
S31520000A00002B20D17B681B6823F0030343F00102EF
S31520000A107B681A6002E0BB68013BBB607B685B6851
S31520000A2003F00303012B02D0BB68002BF3D17B68B4
S31520000A305B6803F00303012B02D00023FB734AE01B
S31520000A400123FB7347E0FB78012B1ED17B681B68D3
S31520000A5023F003027B681A6002E0BB68013BBB609F
S31520000A607B685B6803F00303002B02D0BB68002B76
S31520000A70F3D17B685B6803F00303002B02D00023CD
S31520000A80FB7328E00123FB7325E0FB78022B20D1A2
S31520000A907B681B6823F0030343F002027B681A601D
S31520000AA002E0BB68013BBB607B685B6803F0030325
S31520000AB0022B02D0BB68002BF3D17B685B6803F066
S31520000AC00303022B02D00023FB7304E00123FB73F4
S31520000AD001E00023FB73FB7B18461437BD465DF807
S31520000AE0047B704780B485B000AF78600023FB7329
S31520000AF07B681B6823F0030343F002027B681A60BD
S31520000B007B685B6803F00303022B01D10123FB738F
S31520000B10FB7B18461437BD465DF8047B704780B4CE
S31520000B2085B000AF78604FF6FF73FB600023FB7241
S31520000B307B681B6823F002027B681A6002E0FB6870
S31520000B40013BFB607B685B6803F00203022B02D14A
S31520000B50FB68002BF3D17B685B6803F00203022B52
S31520000B6001D00123FB72FB7A18461437BD465DF887
S31520000B70047B704780B485B000AF78600023FB7398
S31520000B807B689B69DBB203F07003FB73FB7B184623
S31520000B901437BD465DF8047B704780B485B000AF3E
S31520000BA078600023FB737B689B691B0EFB73FB7BC2
S31520000BB018461437BD465DF8047B704780B485B06F
S31520000BC000AF78600023FB737B689B691B0CFB736B
S31520000BD0FB7B18461437BD465DF8047B704780B40E
S31520000BE085B000AFF860B9601346FB71FB79002B26
S31520000BF006D0FB685A69BB681A43FB685A6106E04F
S31520000C00FB685A69BB68DB431A40FB685A6100BF20
S31520000C101437BD465DF8047B704780B485B000AFBD
S31520000C20786039600023FB733B6803F47003002B64
S31520000C300DD07B689A693B681340C3F31303002BDE
S31520000C4002D00123FB7348E00023FB7345E03B6899
S31520000C5003F08073002B0DD07B685A683B681340E5
S31520000C60C3F31303002B02D00123FB7335E00023CB
S31520000C70FB7332E03B6803F00063002B0DD07B68EA
S31520000C809A683B681340C3F31303002B02D0012359
S31520000C90FB7322E00023FB731FE03B6803F0007325
S31520000CA0002B0DD07B68DA683B681340C3F313032F
S31520000CB0002B02D00123FB730FE00023FB730CE013
S31520000CC07B681A693B681340C3F31303002B02D0D9
S31520000CD00123FB7301E00023FB73FB7B18461437CB
S31520000CE0BD465DF8047B704780B485B000AF786060
S31520000CF039600023FB603B68174A934203D17B6827
S31520000D0000229A6121E03B68C3F31303FB603B6832
S31520000D1003F00073002B03D07B68FA68DA6014E0D6
S31520000D203B6803F08063002B03D07B68FA681A6166
S31520000D300BE03B6803F00063002B03D07B68FA6866
S31520000D409A6002E07B68FA685A6000BF1437BD4695
S31520000D505DF8047B704700BF7000F03080B584B02A
S31520000D6000AF786039600023FB737B685A693B6863
S31520000D701340002B00F0C2803B68402B72D03B68AA
S31520000D80402B16D83B68042B48D03B68042B06D84A
S31520000D903B68012B30D03B68022B36D0AAE03B685B
S31520000DA0102B4DD03B68202B53D03B68082B3ED0D0
S31520000DB0A0E03B68B3F5006F00F08A803B68B3F58E
S31520000DC0006F0CD83B68B3F5007F6FD03B68B3F556
S31520000DD0806F74D03B68B3F5807F5ED08AE03B6835
S31520000DE0B3F5803F47D03B68B3F5003F4CD03B6816
S31520000DF0B3F5004F75D07DE07B689B684349184664
S31520000E0000F004F90346FB737AE07B68DB68032174
S31520000E10184600F0FBF80346FB7371E07B68DB683D
S31520000E200821184600F0F2F80346FB7368E07B6859
S31520000E30DB681021184600F0E9F80346FB735FE0F3
S31520000E407B681B690321184600F0E0F80346FB7314
S31520000E5056E07B681B690821184600F0D7F8034640
S31520000E60FB734DE07B681B691021184600F0CEF815
S31520000E700346FB7344E07B685B680821184600F054
S31520000E80C5F80346FB733BE07B685B681021184678
S31520000E9000F0BCF80346FB7332E07B689B690121B6
S31520000EA0184600F0B3F80346FB7329E07B689B697C
S31520000EB00221184600F0AAF80346FB7320E07B685F
S31520000EC09B690421184600F0A1F80346FB7317E03E
S31520000ED07B689B697021184600F098F80346FB73DF
S31520000EE00EE07B685B680421184600F08FF8034605
S31520000EF0FB7305E00023FB7300BF01E00023FB73B7
S31520000F00FB7B18461037BD4680BD00BF010101009E
S31520000F1080B483B000AF786039603B68B3F5807FDA
S31520000F2051D03B68B3F5807F13D83B68082B36D069
S31520000F303B68082B06D83B68012B28D03B68042B3E
S31520000F4029D05AE03B68202B2DD03B68402B2ED051
S31520000F5053E03B68B3F5006F41D03B68B3F5006FB3
S31520000F6008D83B68B3F5007F31D03B68B3F5806F76
S31520000F7031D042E03B68B3F5803F1CD03B68B3F5E7
S31520000F80003F1CD03B68B3F5004F2FD035E07B687F
S31520000F901D4A9A6031E07B680822DA602DE07B6882
S31520000FA01022DA6029E07B6808221A6125E07B6836
S31520000FB010221A6121E07B6808225A601DE07B68B6
S31520000FC010225A6019E07B6804225A6015E07B687B
S31520000FD004225A6011E07B6804225A600DE07B6887
S31520000FE000229A617B6804225A6006E07B68002210
S31520000FF09A617B6804225A6000BF00BF0C37BD4649
S315200010005DF8047B704700BF0101010080B485B004
S3152000101000AF786039600023FB737A683B68134021
S31520001020002B02D00123FB7301E00023FB73FB7B23
S3152000103018461437BD465DF8047B704780B582B0EC
S3152000104000AF78607B684B4A934208D1012101208A
S3152000105001F0BEFE0021012001F0BAFE86E07B6889
S31520001060454A934208D10121022001F0B1FE002118
S31520001070022001F0ADFE79E07B68404A934208D118
S315200010800121042001F0A4FE0021042001F0A0FE8D
S315200010906CE07B683A4A934208D10121082001F08E
S315200010A097FE0021082001F093FE5FE07B68354A19
S315200010B0934208D10121102001F08AFE0021102040
S315200010C001F086FE52E07B682F4A934208D1012127
S315200010D0202001F07DFE0021202001F079FE45E050
S315200010E07B682A4A934208D10121402001F070FEF4
S315200010F00021402001F06CFE38E07B68244A9342B0
S3152000110008D10121802001F063FE0021802001F01A
S315200011105FFE2BE07B681F4A93420AD101214FF4E0
S31520001120807001F055FE00214FF4807001F050FED2
S315200011301CE07B68184A93420AD101214FF40070C3
S3152000114001F046FE00214FF4007001F041FE0DE053
S315200011507B68124A934209D101214FF4806001F045
S3152000116037FE00214FF4806001F032FE00BF0837C1
S31520001170BD4680BD00000240000402400008024037
S31520001180000C0240001002400014024000180240E9
S31520001190001C024000200240002402400028024099
S315200011A080B487B000AF7860396000237B6100236C
S315200011B03B610023FB6000237B6176E001227B6993
S315200011C002FA03F33B613B681B683A691340FB60F4
S315200011D0FA683B699A4265D17B681A687B695B002D
S315200011E0032101FA03F3DB431A407B681A607B680C
S315200011F01A683B681B7919467B695B0001FA03F381
S315200012001A437B681A603B681B79012B03D03B6825
S315200012101B79022B2ED17B689A687B695B000321A0
S3152000122001FA03F3DB431A407B689A607B689A686D
S315200012303B685B7919467B695B0001FA03F31A4325
S315200012407B689A607B685A687B699BB21946012342
S315200012508B40DB431A407B685A607B685B683A6840
S31520001260927911467A6992B201FA02F292B21A433F
S315200012707B685A607B68DA687B699BB25B000321D6
S3152000128001FA03F3DB431A407B68DA607B68DA688D
S315200012903B68DB7919467B695B0001FA03F31A4345
S315200012A07B68DA607B6901337B617B690F2B85D98B
S315200012B000BF1C37BD465DF8047B704780B483B001
S315200012C000AF78607B684FF6FF721A607B68002259
S315200012D01A717B6800225A717B6800229A717B689A
S315200012E00022DA7100BF0C37BD465DF8047B7047DB
S315200012F080B485B000AF78600B467B804FF4803396
S31520001300FB607A88FB681343FB60FA687B68DA61C6
S315200013107A887B68DA61FA687B68DA617B68DB69E0
S31520001320FB607B68DB69FB6000BF1437BD465DF858
S31520001330047B704780B485B000AF78600B467B8015
S315200013400023FB737B681A697B881340002B02D02D
S315200013500123FB7301E00023FB73FB7B1846143744
S31520001360BD465DF8047B704780B483B000AF7860DB
S315200013707B681B699BB218460C37BD465DF8047B1B
S31520001380704780B485B000AF78600B467B80002321
S31520001390FB737B685A697B881340002B02D001239C
S315200013A0FB7301E00023FB73FB7B18461437BD4615
S315200013B05DF8047B704780B483B000AF78607B68AB
S315200013C05B699BB218460C37BD465DF8047B7047B7
S315200013D080B483B000AF78600B467B807B687A88C8
S315200013E01A8300BF0C37BD465DF8047B704780B476
S315200013F083B000AF78600B467B807B687A885A83FF
S3152000140000BF0C37BD465DF8047B704780B483B0BF
S3152000141000AF78600B467B8013467B707B78002B71
S3152000142003D07B687A881A8302E07B687A885A839D
S3152000143000BF0C37BD465DF8047B704780B483B08F
S3152000144000AF78600B467B807A887B685A6100BF44
S315200014500C37BD465DF8047B704780B483B000AF7F
S3152000146078600B467B807B685A697B885A407B680C
S315200014705A6100BF0C37BD465DF8047B704780B4C7
S3152000148085B000AF78600B467B8013467B700023C7
S31520001490FB600023BB607A787B8803F007039B0000
S315200014A002FA03F3FB607B88DB089BB21A467B6853
S315200014B0083253F822207B8803F007039B000F2174
S315200014C001FA03F3DB437988C90889B2084602EAA0
S315200014D003017B6800F1080243F822107B88DB08B1
S315200014E09BB21A467B68083253F82230FA681343B7
S315200014F0BB607B88DB089BB21A467B680832B968DA
S3152000150043F8221000BF1437BD465DF8047B7047B0
S3152000151080B582B000AF78607B683B4A934208D1A1
S315200015200121102001F0D4FC0021102001F0D0FC74
S3152000153065E07B68354A93420AD101214FF4003099
S3152000154001F0A6FC00214FF4003001F0A1FC56E08A
S315200015507B682F4A93420AD101214FF4802001F063
S3152000156097FC00214FF4802001F092FC47E07B6835
S31520001570284A93420AD101214FF4002001F088FC29
S3152000158000214FF4002001F083FC38E07B68224ADA
S3152000159093420AD101214FF4801001F079FC0021F9
S315200015A04FF4801001F074FC29E07B681B4A9342BB
S315200015B008D10121202001F08BFC0021202001F000
S315200015C087FC1CE07B68164A93420AD101214FF022
S315200015D0804001F05DFC00214FF0804001F058FC76
S315200015E00DE07B680F4A934209D101214FF000405C
S315200015F001F04EFC00214FF0004001F049FC00BFF5
S315200016000837BD4680BD00BF0010014000440040A1
S3152000161000480040004C00400050004000140140AB
S3152000162000780040007C004080B58AB000AF78602A
S31520001630396000237B6200233B620023FB61002389
S31520001640BB617B681B8A9BB27B627B6A23F4405317
S315200016507B623B68DB881A467B6A13437B627B6A24
S315200016609AB27B681A827B689B899BB27B627B6A73
S3152000167023F4B05323F00C037B623B689A883B68C3
S315200016801B8913439AB23B685B8913439BB21A4664
S315200016907B6A13437B627B6A9AB27B689A817B68FA
S315200016A09B8A9BB27B627B6A23F440737B623B6896
S315200016B09B891A467B6A13437B627B6A9AB27B6854
S315200016C09A8207F10803184601F030F97B68304A00
S315200016D0934203D07B682F4A934202D17B693B62B7
S315200016E001E03B693B627B689B899BB21BB2002B66
S315200016F00CDA3A6A13469B0013449A001A443B6854
S315200017001B685B00B2FBF3F3FB610BE03A6A1346FE
S315200017109B0013449A001A443B681B689B00B2FB4B
S31520001720F3F3FB61FB691C4AA2FB03235B091B0144
S315200017307B627B6A1B09642202FB03F3FA69D31AD4
S31520001740BB617B689B899BB21BB2002B0CDABB6901
S31520001750DB003233104AA2FB03235B0903F00703A5
S315200017607A6A13437B620BE0BB691B0132330A4A58
S31520001770A2FB03235B0903F00F037A6A13437B6200
S315200017807B6A9AB27B681A8100BF2837BD4680BD26
S3152000179000100140001401401F85EB5180B483B036
S315200017A000AF78607B684FF416521A607B6800227F
S315200017B09A807B680022DA807B6800221A817B6807
S315200017C00C225A817B6800229A8100BF0C37BD46C5
S315200017D05DF8047B704780B485B000AF78603960CF
S315200017E00023FB607B681B8A9BB2FB60FB6823F4AB
S315200017F07063FB603B681A883B685B8813439AB228
S315200018003B689B8813439AB23B68DB8813439BB2A1
S315200018101A46FB681343FB60FB689AB27B681A8200
S3152000182000BF1437BD465DF8047B704780B483B093
S3152000183000AF78607B6800221A807B6800225A807D
S315200018407B6800229A807B680022DA8000BF0C37F2
S31520001850BD465DF8047B704780B483B000AF7860E6
S315200018600B46FB70FB78002B08D07B689B899BB2CC
S3152000187043F400539AB27B689A8107E07B689B8980
S315200018809BB223F400539AB27B689A8100BF0C372F
S31520001890BD465DF8047B704780B483B000AF7860A6
S315200018A00B46FB707B681B8B9BB223F0FF039AB21F
S315200018B07B681A837B681B8B9AB2FB789BB2134397
S315200018C09AB27B681A8300BF0C37BD465DF8047B4D
S315200018D0704780B483B000AF78600B46FB70FB780E
S315200018E0002B0AD07B689B899BB26FEA43436FEA41
S315200018F053439AB27B689A8107E07B689B899BB2A7
S31520001900C3F30E039AB27B689A8100BF0C37BD469B
S315200019105DF8047B704780B483B000AF78600B46D7
S31520001920FB70FB78002B08D07B689B8A9BB243F424
S3152000193000639AB27B689A8207E07B689B8A9BB297
S3152000194023F400639AB27B689A8200BF0C37BD46A7
S315200019505DF8047B704780B483B000AF78600B4697
S315200019607B807B88C3F308039AB27B689A8000BF8A
S315200019700C37BD465DF8047B704780B483B000AF5A
S3152000198078607B689B889BB2C3F308039BB218469A
S315200019900C37BD465DF8047B704780B483B000AF3A
S315200019A078600B46FB707B681B8A9BB223F00F0383
S315200019B09AB27B681A827B681B8A9AB2FB789BB2A2
S315200019C013439AB27B681A8200BF0C37BD465DF876
S315200019D0047B704780B483B000AF78600B46FB7001
S315200019E0FB78002B08D07B689B899BB243F00203CF
S315200019F09AB27B689A8107E07B689B899BB223F029
S31520001A0002039AB27B689A8100BF0C37BD465DF807
S31520001A10047B704780B483B000AF78600B467B8030
S31520001A207B689B899BB223F400639AB27B689A8178
S31520001A307B689B899AB27B8813439AB27B689A818A
S31520001A4000BF0C37BD465DF8047B704780B483B079
S31520001A5000AF78600B467B807B681B8A9BB223F0A5
S31520001A6020039AB27B681A827B681B8A9AB27B888B
S31520001A7013439AB27B681A8200BF0C37BD465DF8C5
S31520001A80047B704780B483B000AF78600B46FB7050
S31520001A90FB78002B08D07B681B8A9BB243F48043DB
S31520001AA09AB27B681A8207E07B681B8A9BB223F472
S31520001AB080439AB27B681A8200BF0C37BD465DF818
S31520001AC0047B704780B483B000AF78607B689B89C5
S31520001AD09BB243F001039AB27B689A8100BF0C3710
S31520001AE0BD465DF8047B704780B483B000AF786054
S31520001AF00B46FB70FB78002B08D07B689B8A9BB239
S31520001B0043F008039AB27B689A8207E07B689B8A37
S31520001B109BB223F008039AB27B689A8200BF0C37E7
S31520001B20BD465DF8047B704780B483B000AF786013
S31520001B300B46FB707B681B8B9BB2DBB29AB27B6831
S31520001B401A837B681B8B9AB2FB789BB21B029BB2D3
S31520001B5013439AB27B681A8300BF0C37BD465DF8E3
S31520001B60047B704780B483B000AF78600B46FB706F
S31520001B70FB78002B08D07B689B8A9BB243F020031E
S31520001B809AB27B689A8207E07B689B8A9BB223F095
S31520001B9020039AB27B689A8200BF0C37BD465DF857
S31520001BA0047B704780B483B000AF78600B46FB702F
S31520001BB0FB78002B08D07B689B8A9BB243F01003EE
S31520001BC09AB27B689A8207E07B689B8A9BB223F055
S31520001BD010039AB27B689A8200BF0C37BD465DF827
S31520001BE0047B704780B483B000AF78600B467B805F
S31520001BF07B689B8A9BB223F004039AB27B689A8205
S31520001C007B689B8A9AB27B8813439AB27B689A82B6
S31520001C1000BF0C37BD465DF8047B704780B483B0A7
S31520001C2000AF78600B46FB70FB78002B08D07B68F2
S31520001C309B8A9BB243F002039AB27B689A8207E0A2
S31520001C407B689B8A9BB223F002039AB27B689A82B6
S31520001C5000BF0C37BD465DF8047B704780B483B067
S31520001C6000AF78600B467B8013467B707B78002B19
S31520001C7008D07B689B8A9AB27B8813439AB27B688A
S31520001C809A8209E07B689B8A9AB27B88DB439BB267
S31520001C9013409AB27B689A8200BF0C37BD465DF826
S31520001CA0047B704780B487B000AF78600B467B809A
S31520001CB013467B7000233B610023FB600023BB603F
S31520001CC000237B617B687B617B88DBB25B09DBB2AF
S31520001CD03B617B8803F01F03FB600122FB6802FA4D
S31520001CE003F3BB603B69012B03D17B690C337B611A
S31520001CF009E03B69022B03D17B6910337B6102E04B
S31520001D007B6914337B617B78002B06D07B6919684D
S31520001D107B69BA680A431A6006E07B691968BB6862
S31520001D20DA437B690A401A6000BF1C37BD465DF85E
S31520001D30047B704780B485B000AF78600B467B800B
S31520001D400023FB737B681B889AB27B8813409BB267
S31520001D50002B02D00123FB7301E00023FB73FB7BE6
S31520001D6018461437BD465DF8047B704780B483B0AF
S31520001D7000AF78600B467B807B88DB439AB27B681A
S31520001D801A8000BF0C37BD465DF8047B704780B4CF
S31520001D9087B000AF78600B467B800023FB60002372
S31520001DA07B610023BB600023FB747B88DBB25B096D
S31520001DB0DBB2BB607B8803F01F037B6101227B695A
S31520001DC002FA03F37B61BB68012B07D17B689B89F1
S31520001DD09BB21A467B6913407B6111E0BB68022BDC
S31520001DE007D17B681B8A9BB21A467B6913407B61AD
S31520001DF006E07B689B8A9BB21A467B6913407B610F
S31520001E007B881B0A9BB2FB600122FB6802FA03F364
S31520001E10FB607B681B889BB21A46FB681340FB60FD
S31520001E207B69002B05D0FB68002B02D00123FB74B5
S31520001E3001E00023FB74FB7C18461C37BD465DF889
S31520001E40047B704780B485B000AF78600B467B80FA
S31520001E500023FB810023BB817B881B0AFB81FB8936
S31520001E60012202FA03F3BB81BB89DB439AB27B686A
S31520001E701A8000BF1437BD465DF8047B704700BF4B
S31520001E8080B400AF094B00221A60084B00225A602A
S31520001E90064B00229A60054B0022DA60034B044A67
S31520001EA05A6100BFBD465DF8047B7047003C014087
S31520001EB0FFFF7F0080B485B000AF78600023FB6011
S31520001EC0344BFB607B689B79002B4FD0314B1A68D3
S31520001ED07B681B68DB432F4913400B602D4B5A68E8
S31520001EE07B681B68DB432B4913404B607B681B795F
S31520001EF01A46FB681344FB60FB6819687B681A68FE
S31520001F00FB680A431A60234B9A687B681B68DB438D
S31520001F10204913408B601F4BDA687B681B68DB43C4
S31520001F201C491340CB607B685B79102B0ED1194B73
S31520001F309A687B681B68174913438B60154BDA68D0
S31520001F407B681B6813491343CB601DE0114BFB6074
S31520001F507B685B791A46FB681344FB60FB6819684B
S31520001F607B681A68FB680A431A600DE07B681B7958
S31520001F701A46FB681344FB60FB6819687B681B687C
S31520001F80DA43FB680A401A6000BF1437BD465DF885
S31520001F90047B7047003C014080B483B000AF78607A
S31520001FA07B6800221A607B6800221A717B680C22EB
S31520001FB05A717B6800229A7100BF0C37BD465DF8C6
S31520001FC0047B704780B483B000AF7860054B1A69F4
S31520001FD004497B6813430B6100BF0C37BD465DF88F
S31520001FE0047B7047003C014080B485B000AF786028
S31520001FF00023FB73084B5A697B681340002B02D0E1
S315200020000123FB7301E00023FB73FB7B1846143787
S31520002010BD465DF8047B7047003C014080B483B028
S3152000202000AF7860044A7B68536100BF0C37BD4619
S315200020305DF8047B704700BF003C014080B485B04A
S3152000204000AF78600023FB73084B5A697B68134006
S31520002050002B02D00123FB7301E00023FB73FB7BE3
S3152000206018461437BD465DF8047B7047003C014096
S3152000207080B483B000AF7860044A7B68536100BFA8
S315200020800C37BD465DF8047B704700BF003C01401D
S3152000209080B483B000AF0346FB71FB7903F01F03C6
S315200020A0012202FA03F1064A97F907305B0942F842
S315200020B0231000BF0C37BD465DF8047B704700BF78
S315200020C000E100E080B483B000AF03463960FB71C5
S315200020D097F90730002B0BDA3B68DAB20C49FB790B
S315200020E003F00F03043B1201D2B20B441A7609E027
S315200020F03B68DAB2074997F907301201D2B20B448E
S3152000210083F8002300BF0C37BD465DF8047B70477B
S3152000211000ED00E000E100E080B586B000AF786019
S3152000212039607B680022DA617B68DA697B689A61AC
S315200021307B689A697B681A62224801F00FFA07F1D8
S315200021400C031846FEF722F90023BB740023FB7408
S3152000215000233B7500237B750023BB750023FB758D
S315200021600023BB730023FB7302233B7403237B747E
S315200021700723BB8107F10C0319461348FDF772FFAD
S315200021800346002B02D1114801F0E8F907F10C03B0
S3152000219019460F48FDF766FF0346002B02D10D486E
S315200021A001F0DCF902211420FFF78CFF1420FFF741
S315200021B06FFF012202210448FEF711FD00BF1837E8
S315200021C0BD4680BDB078002000640040D87800204D
S315200021D000680040F0780020B0B58AB002AF786081
S315200021E039607B689B685A491846FEF716FD0346F8
S315200021F0012B02D0574801F0B1F97B681B6A072BE7
S3152000220000F39F807B689B6807F10802002118462F
S31520002210FEF7EBFABB681B09DBB27A68926903F01A
S315200022207F03D8B2796813469B0013445B0013449E
S315200022300B44243302461A70BB68DBB27A68926973
S3152000224003F00F03D8B2796813469B0013445B0052
S3152000225013440B44253302461A70BB7C7A68926974
S3152000226003F00F03D8B2796813469B0013445B0032
S3152000227013440B44263302461A700023FB7716E0DC
S31520002280FB7F7A689269F97F07F12000034413F8EF
S315200022900D4C786813469B0013445B00134403449B
S315200022A00B44273322461A70FB7F0133FB777B686A
S315200022B09A69796813469B0013445B0013440B44C8
S315200022C026331B78FA7F9A42DAD37B68DB68002BA9
S315200022D025D07B68DC687B681D697B689A6979688C
S315200022E013469B0013445B0013440B4424331B7892
S315200022F019017B689A69786813469B0013445B0032
S315200023001344034425331B780B4400932B46224663
S315200023100021002001F05AFD0F4B01221A607B6834
S315200023209B6901335A4203F0070302F0070258BFA4
S3152000233053427A6893617B681B6A5A1C7B681A62CF
S3152000234002E0064801F00AF900BF2037BD46B0BDBD
S315200023500300001208790020108400203079002024
S3152000236090B484B000AF786039607B681B6A002B1C
S3152000237055DD7B68DA69796813469B0013445B0058
S3152000238013440B4424331A783B681A707B68DA6945
S31520002390796813469B0013445B0013440B44253392
S315200023A01A783B685A707B68DA69796813469B000D
S315200023B013445B0013440B4426331A783B689A7007
S315200023C00023FB7313E07B68DA69F87BF97B7C6872
S315200023D013469B0013445B001344234403442733D2
S315200023E01A783B680B44DA70FB7B0133FB733B683E
S315200023F09B78FA7B9A42E6D37B68DB6901335A42A3
S3152000240003F0070302F0070258BF53427A68D361EC
S315200024107B681B6A5A1E7B681A62002300E0012330
S3152000242018461037BD4690BC704780B58CB000AFBB
S31520002430786039607B689B687B62002387F823304D
S315200024400023BB62244B7B623B681B781B013A68E6
S3152000245052781344FB6000237B7500233B753B6851
S315200024609B78082B02D93B6808229A703B689B7898
S31520002470BB75002387F82F3010E097F82F2097F8A8
S315200024802F3039680A44D27807F130010B4403F81B
S31520002490192C97F82F30013387F82F303B689B781B
S315200024A097F82F209A42E8D307F10C031946786A49
S315200024B0FEF730F8034687F8233097F82330042BAD
S315200024C004D1064801F04AF80123BB62BB6A1846CC
S315200024D03037BD4680BD00BF0068004050790020DF
S315200024E080B400AF164B1B68154A43F001031360F6
S315200024F0134B00229A60124B1B68114A23F0A853F3
S3152000250023F4102313600E4B0E4A5A600C4B0E4ACE
S31520002510C3F884200A4B0D4AC3F88820084B1B6851
S31520002520074A23F480231360054B0022DA60044B0C
S315200025300022C3F88C2000BFBD465DF8047B70479F
S3152000254000380240103000240030002000300024E3
S3152000255080B483B000AF0346FB71064B00221A708D
S31520002560044AFB79137000BF0C37BD465DF8047B27
S31520002570704700BF0238024080B582B000AF00230A
S315200025803B600023FB710023BB71312000F086FDE8
S315200025900346BB713B6801333B603B68B3F5A04FF4
S315200025A002D0BB79002BF0D0312000F077FD034616
S315200025B0002B02D00123FB7101E00023FB71FB7984
S315200025C018460837BD4680BD80B485B000AF0346A7
S315200025D0FB710023FB600A4B1B68FB60FB6823F042
S315200025E0F803FB60FB79DB00FA681343FB60044ABF
S315200025F0FB68136000BF1437BD465DF8047B704747
S315200026000038024080B483B000AF0346FB71044A11
S31520002610FB79136000BF0C37BD465DF8047B70471D
S315200026200000474280B483B000AF0346FB710D4BD8
S3152000263000221A700B4B00221A70FB79012B02D054
S31520002640042B04D007E0074B01221A7003E0054B48
S3152000265005221A7000BF00BF0C37BD465DF8047B0B
S31520002660704700BF7038024080B483B000AF034685
S31520002670FB71044AFB79136000BF0C37BD465DF839
S31520002680047B7047800E474280B485B000AFF86067
S31520002690B9607A603B607B689A01BB681A433B68E5
S315200026A05B08013B1B041A43FB681A43BB691B06E4
S315200026B0044913434B6000BF1437BD465DF8047BC5
S315200026C0704700BF0038024080B483B000AF034695
S315200026D0FB71044AFB79136000BF0C37BD465DF8D9
S315200026E0047B70476000474280B483B000AF7860B7
S315200026F039607B689A013B681B0705491343C1F87B
S31520002700843000BF0C37BD465DF8047B704700BFA0
S315200027100038024080B483B000AF0346FB71044A00
S31520002720FB79136000BF0C37BD465DF8047B70470C
S315200027306800474280B485B000AFF860B9607A601F
S31520002740FB689A01BB681B061A437B681B07054971
S315200027501343C1F8883000BF1437BD465DF8047BAB
S31520002760704700BF0038024080B483B000AF0346F4
S31520002770FB71044AFB79136000BF0C37BD465DF838
S31520002780047B70477000474280B483B000AF034695
S31520002790FB71044AFB79136000BF0C37BD465DF818
S315200027A0047B70474C00474280B485B000AF786008
S315200027B039600023FB600B4B9B68FB60FB6823F0B2
S315200027C0EC63FB607A683B681343FA681343FB604B
S315200027D0044AFB68936000BF1437BD465DF8047B4E
S315200027E0704700BF0038024080B485B000AF7860E3
S315200027F039600023FB600B4B9B68FB60FB6823F072
S315200028007843FB607A683B681343FA681343FB609E
S31520002810044AFB68936000BF1437BD465DF8047B0D
S31520002820704700BF0038024080B485B000AF7860A2
S315200028300023FB60094B9B68FB60FB6823F00303C6
S31520002840FB60FA687B681343FB60044AFB6893606D
S3152000285000BF1437BD465DF8047B70470038024040
S3152000286080B400AF054B9B68DBB203F00C03DBB2F0
S315200028701846BD465DF8047B704700BF003802400D
S3152000288080B485B000AF78600023FB60094B9B685D
S31520002890FB60FB6823F0F003FB60FA687B68134358
S315200028A0FB60044AFB68936000BF1437BD465DF8A1
S315200028B0047B70470038024080B485B000AF786052
S315200028C00023FB60094B9B68FB60FB6823F4E05305
S315200028D0FB60FA687B681343FB60044AFB689360DD
S315200028E000BF1437BD465DF8047B704700380240B0
S315200028F080B485B000AF78600023FB600A4B9B68EC
S31520002900FB60FB6823F46043FB607B68DB00FA68AE
S315200029101343FB60044AFB68936000BF1437BD462F
S315200029205DF8047B704700BF0038024080B489B050
S3152000293000AF78600023BB6100237B610023FB612D
S3152000294002233B610023FB600223BB60484B9B684C
S3152000295003F00C03BB61BB69042B09D0BB69082BB0
S315200029600AD0BB69002B3DD17B68424A1A603DE004
S315200029707B68414A1A6039E03D4B5B689B0D03F04A
S315200029800103FB603A4B5B6803F03F03BB60FB68C7
S31520002990002B0CD0384ABB68B2FBF3F3344A52689A
S315200029A09209C2F3080202FB03F3FB610BE0314AF2
S315200029B0BB68B2FBF3F32E4A52689209C2F30802AF
S315200029C002FB03F3FB612A4B5B681B0C03F003033A
S315200029D001335B003B61FA693B69B2FBF3F27B682A
S315200029E01A6003E07B68234A1A6000BF204B9B686D
S315200029F003F0F003BB61BB691B09BB611F4ABB69BE
S31520002A0013441B78DBB27B617B681A687B69DA40EA
S31520002A107B685A60164B9B6803F4E053BB61BB6925
S31520002A209B0ABB61154ABB6913441B78DBB27B61E9
S31520002A307B685A687B69DA407B689A600C4B9B6896
S31520002A4003F46043BB61BB695B0BBB610B4ABB698B
S31520002A5013441B78DBB27B617B685A687B69DA405A
S31520002A607B68DA6000BF2437BD465DF8047B70477B
S31520002A70003802400024F40000127A00687C00200E
S31520002A8080B485B000AF78600023FB607B6803F4D8
S31520002A904073B3F5407F11D10F4B9B68FB60FB68F9
S31520002AA023F4F813FB607B6823F0704323F4407310
S31520002AB0FA681343FB60084AFB689360064B1A6F5B
S31520002AC07B68C3F30B03044913430B6700BF14371A
S31520002AD0BD465DF8047B70470038024080B483B061
S31520002AE000AF0346FB71044AFB79136000BF0C3725
S31520002AF0BD465DF8047B70473C0E474280B483B0E8
S31520002B0000AF0346FB71044AFB79136000BF0C3704
S31520002B10BD465DF8047B7047400E474280B483B0C3
S31520002B2000AF7860044A7B68136000BF0C37BD464F
S31520002B305DF8047B704700BF5C01474280B485B0D6
S31520002B4000AF78600023FB600B4BD3F88C30FB6022
S31520002B50FB6823F01F03FB607B68013BFA68134385
S31520002B60FB60054AFB68C2F88C3000BF1437BD46AF
S31520002B705DF8047B704700BF0038024080B485B002
S31520002B8000AF78600023FB600B4BD3F88C30FB60E2
S31520002B90FB6823F4F853FB607B68013B1B02FA6851
S31520002BA01343FB60044AFB68C2F88C3000BF14371D
S31520002BB0BD465DF8047B70470038024080B485B07E
S31520002BC000AF78600023FB600A4BD3F88C30FB60A3
S31520002BD0FB6823F44013FB60FA687B681343FB60B1
S31520002BE0044AFB68C2F88C3000BF1437BD465DF836
S31520002BF0047B70470038024080B485B000AF78600F
S31520002C000023FB600A4BD3F88C30FB60FB6823F46F
S31520002C104003FB60FA687B681343FB60044AFB6849
S31520002C20C2F88C3000BF1437BD465DF8047B704770
S31520002C300038024080B485B000AF78600023FB6086
S31520002C400A4BD3F88C30FB60FB6823F44033FB60DF
S31520002C50FA687B681343FB60044AFB68C2F88C3031
S31520002C6000BF1437BD465DF8047B7047003802402C
S31520002C7080B483B000AF7860044A7B68136000BFDD
S31520002C800C37BD465DF8047B704700BFE011474214
S31520002C9080B483B000AF78600B46FB70FB78002BC6
S31520002CA006D00A4B1A6B09497B6813430B6306E06F
S31520002CB0064B1A6B7B68DB43044913400B6300BF4A
S31520002CC00C37BD465DF8047B704700BF00380240D4
S31520002CD080B483B000AF78600B46FB70FB78002B86
S31520002CE006D00A4B5A6B09497B6813434B6306E0AF
S31520002CF0064B5A6B7B68DB43044913404B6300BF8A
S31520002D000C37BD465DF8047B704700BF0038024093
S31520002D1080B483B000AF78600B46FB70FB78002B45
S31520002D2006D00A4B9A6B09497B6813438B6306E0EE
S31520002D30064B9A6B7B68DB43044913408B6300BFC9
S31520002D400C37BD465DF8047B704700BF0038024053
S31520002D5080B483B000AF78600B46FB70FB78002B05
S31520002D6006D00A4B1A6C09497B6813430B6406E0AC
S31520002D70064B1A6C7B68DB43044913400B6400BF87
S31520002D800C37BD465DF8047B704700BF0038024013
S31520002D9080B483B000AF78600B46FB70FB78002BC5
S31520002DA006D00A4B5A6C09497B6813434B6406E0EC
S31520002DB0064B5A6C7B68DB43044913404B6400BFC7
S31520002DC00C37BD465DF8047B704700BF00380240D3
S31520002DD080B483B000AF78600B46FB70FB78002B85
S31520002DE006D00A4B1A6909497B6813430B6106E032
S31520002DF0064B1A697B68DB43044913400B6100BF0D
S31520002E000C37BD465DF8047B704700BF0038024092
S31520002E1080B483B000AF78600B46FB70FB78002B44
S31520002E2006D00A4B5A6909497B6813434B6106E071
S31520002E30064B5A697B68DB43044913404B6100BF4C
S31520002E400C37BD465DF8047B704700BF0038024052
S31520002E5080B483B000AF78600B46FB70FB78002B04
S31520002E6006D00A4B9A6909497B6813438B6106E0B1
S31520002E70064B9A697B68DB43044913408B6100BF8C
S31520002E800C37BD465DF8047B704700BF0038024012
S31520002E9080B483B000AF78600B46FB70FB78002BC4
S31520002EA006D00A4B1A6A09497B6813430B6206E06F
S31520002EB0064B1A6A7B68DB43044913400B6200BF4A
S31520002EC00C37BD465DF8047B704700BF00380240D2
S31520002ED080B483B000AF78600B46FB70FB78002B84
S31520002EE006D00A4B5A6A09497B6813434B6206E0AF
S31520002EF0064B5A6A7B68DB43044913404B6200BF8A
S31520002F000C37BD465DF8047B704700BF0038024091
S31520002F1080B483B000AF78600B46FB70FB78002B43
S31520002F2006D00A4B1A6D09497B6813430B6506E0E8
S31520002F30064B1A6D7B68DB43044913400B6500BFC3
S31520002F400C37BD465DF8047B704700BF0038024051
S31520002F5080B483B000AF78600B46FB70FB78002B03
S31520002F6006D00A4B5A6D09497B6813434B6506E028
S31520002F70064B5A6D7B68DB43044913404B6500BF03
S31520002F800C37BD465DF8047B704700BF0038024011
S31520002F9080B483B000AF78600B46FB70FB78002BC3
S31520002FA006D00A4B9A6D09497B6813438B6506E068
S31520002FB0064B9A6D7B68DB43044913408B6500BF43
S31520002FC00C37BD465DF8047B704700BF00380240D1
S31520002FD080B483B000AF78600B46FB70FB78002B83
S31520002FE006D00A4B1A6E09497B6813430B6606E026
S31520002FF0064B1A6E7B68DB43044913400B6600BF01
S315200030000C37BD465DF8047B704700BF0038024090
S3152000301080B483B000AF78600B46FB70FB78002B42
S3152000302006D00A4B5A6E09497B6813434B6606E065
S31520003030064B5A6E7B68DB43044913404B6600BF40
S315200030400C37BD465DF8047B704700BF0038024050
S3152000305080B483B000AF03460A46FB711346BB71AA
S31520003060BB79002B08D00C4B1B78DAB20A49FB79C6
S315200030701343DBB20B7009E0074B1B78DAB2FB79FE
S31520003080DB43DBB204491340DBB20B7000BF0C37C5
S31520003090BD465DF8047B70470D38024080B487B08A
S315200030A000AF0346FB710023FB6000237B610023F6
S315200030B0FB74FB795B09DBB2FB60FB68012B03D158
S315200030C0124B1B687B6109E0FB68022B03D10F4B77
S315200030D01B6F7B6102E00D4B5B6F7B61FB7903F01D
S315200030E01F03FB607A69FB6822FA03F303F00103EE
S315200030F0002B02D00123FB7401E00023FB74FB7C30
S3152000310018461C37BD465DF8047B704700380240E0
S3152000311080B400AF054B5B6F044A43F0807353675E
S3152000312000BFBD465DF8047B704700BF00380240F3
S3152000313080B485B000AF0346FB710023FB73094BB7
S31520003140DA68FB791340002B02D00123FB7301E0E0
S315200031500023FB73FB7B18461437BD465DF8047BC2
S31520003160704700BF0038024080B483B000AF0346EA
S31520003170FB71044AFB79137000BF0C37BD465DF81E
S31520003180047B70470E38024080B483B000AF0346FC
S31520003190FB71FB7903F01F03012202FA03F1064AB1
S315200031A097F907305B0942F8231000BF0C37BD465C
S315200031B05DF8047B704700BF00E100E080B483B077
S315200031C000AF03463960FB7197F90730002B0BDA05
S315200031D03B68DAB20C49FB7903F00F03043B12017A
S315200031E0D2B20B441A7609E03B68DAB2074997F95E
S315200031F007301201D2B20B4483F8002300BF0C37EC
S31520003200BD465DF8047B704700ED00E000E100E07C
S3152000321080B582B000AF786039607B6800229A6101
S315200032207B689A697B685A617B685A697B68DA6130
S31520003230012240F225510A48FEF734FD002240F2D1
S3152000324027710748FEF72EFD02212520FFF7B6FF3E
S315200032502520FFF799FF00BF0837BD4680BD00BF78
S315200032600010014080B483B000AF78600B46FB703D
S315200032707B68DB69B3F5806F17DA7B685B697A68F0
S315200032801344FA7883F820207B685B6901335A421D
S31520003290C3F30903C2F3090258BF53427A68536144
S315200032A07B68DB695A1C7B68DA6100BF0C37BD4638
S315200032B05DF8047B704780B582B000AF78603960D6
S315200032C07B68DB69002B18D17B689B68012240F262
S315200032D027711846FEF7E6FC0FE03B681B780A2BA1
S315200032E003D10D217868FFF7BDFF3B685A1C3A6071
S315200032F01B7819467868FFF7B5FF3B681B78002BCB
S31520003300EBD100BF0837BD4680BD80B582B000AF87
S31520003310786039607B68DB69002B07D17B689B6806
S31520003320012240F227711846FEF7BCFC3B68DBB24F
S3152000333019467868FFF796FF00BF0837BD4680BD5F
S3152000334080B586B002AF786039607B689B682021A3
S315200033501846FEF7EFFC0346012B18D17B689B68C5
S315200033601846FEF70AFB0346FB607B68DB68002BEA
S315200033700DD07B68DA687B681969FB6800930B4679
S315200033800021002000F022FD234B01221A607B68D9
S315200033909B6880211846FEF7CDFC0346012B35D1CC
S315200033A07B68DB69002B29DD7B6898687B689B69D5
S315200033B07A68134493F820309BB21946FEF7CBFA6D
S315200033C07B689B6901335A42C3F30903C2F309029E
S315200033D058BF53427A6893617B68DB695A1E7B68C3
S315200033E0DA617B68DB69002B10D17B689B68002241
S315200033F040F227711846FEF755FC07E07B689B686C
S31520003400002240F227711846FEF74CFC002318468E
S315200034101037BD4680BD00BF1084002080B483B025
S3152000342000AFEFF314833B603B6823F003037B601C
S315200034307B6883F314880A4B4FF404725A61084B55
S315200034405B69074A43F008035361064B4FF000427D
S315200034505A6000BF0C37BD465DF8047B704700BF3D
S3152000346000ED00E030EF00E080B400AF174A02E044
S31520003470002342F8043B164B9A42F9D300BFBD46BF
S315200034805DF8047B704780B500AFFFF7EDFF074B73
S315200034901B68074A934202D1064B984702E006482A
S315200034A000F05CF8FFF7BAFF00BF80BD10020008ED
S315200034B0ABACAB00150200086479002080B400AFE5
S315200034C000BFBD465DF8047B7047000010840020D5
S315200034D0A808012080B483B000AF0346FB71FB79B6
S315200034E003F01F03012202FA03F1064A97F9073077
S315200034F05B0942F8231000BF0C37BD465DF8047BFC
S31520003500704700BF00E100E080B483B000AF0346FF
S315200035103960FB7197F90730002B0BDA3B68DAB27A
S315200035200C49FB7903F00F03043B1201D2B20B4482
S315200035301A7609E03B68DAB2074997F90730120193
S31520003540D2B20B4483F8002300BF0C37BD465DF88A
S31520003550047B704700ED00E000E100E080B582B01A
S3152000356000AF78600EE07B681B780D2B07D07B6858
S315200035705A1C7A601B78184600F05CF902E07B68DA
S3152000358001337B607B681B78002BECD100BF0837AA
S31520003590BD4680BD80B586B000AF786000237B61D4
S315200035A07B6803F00F027B69591C79610F498A5C9D
S315200035B007F118010B4403F80C2C7B681B097B6070
S315200035C07B68002BECD10AE07B69013B7B6107F12C
S315200035D00C027B6913441B78184600F02BF97B6993
S315200035E0002BF1D100BF1837BD4680BD787C002066
S315200035F080B59EB000AF78607B68002B02DA4FF072
S31520003600FF3300E001233B677B683A6F02FB03F33D
S315200036107B6000237B6779681C4B83FB01239A1010
S31520003620CB17D21A13469B0013445B00CA1A7B6F32
S31520003630591C796716498A5C07F178010B4403F80F
S315200036406C2C7B68114A82FB03129210DB17D31A6B
S315200036507B607B68002BDED13B6F002B0EDA2D20A2
S3152000366000F0E8F80AE07B6F013B7B6707F10C026C
S315200036707B6F13441B78184600F0DCF87B6F002B19
S31520003680F1D100BF7837BD4680BD00BF676666664C
S31520003690787C002080B483B000AF10237B607B68E9
S315200036A083F3118800BF0C37BD465DF8047B704755
S315200036B080B483B000AF30237B607B6883F31188AE
S315200036C000BF0C37BD465DF8047B704780B584B0DB
S315200036D000AF78600B48FFF741FF0B4B1B68002BB0
S315200036E002D1094B094A1A60074B1B68FB60064B3F
S315200036F01A687B681344044A1360FB68184610371F
S31520003700BD4680BDA879002090880020A808012009
S3152000371080B485B000AF786039603B6803F5F95313
S3152000372010337A6813607B681B68BB600023FB60DC
S315200037300AE0FB689B001A46BB6813441A4600231E
S315200037401360FB680133FB60FB68332BF1DDBB683C
S315200037506FF016021A60BB6804331A4603231360FF
S31520003760BB6884331A464FF08073136000BF14374A
S31520003770BD465DF8047B704780B485B000AF7860A5
S3152000378039607B681B688033FB60FB683A681A6087
S3152000379000BF1437BD465DF8047B704780B584B002
S315200037A000AF1D4801F024FB3B1D184601F06CFCC0
S315200037B040F24733BB803B1D1946174801F0F8FB02
S315200037C0164B174A1A6002216FF00100FFF79CFE84
S315200037D0144B154A1A6000216FF00400FFF794FE7F
S315200037E0124B134A1A6002213220FFF78DFE322037
S315200037F0FFF770FE0021084801F090FC01210648E1
S3152000380001F059FD01220221034802F027FD00BFE5
S315200038101037BD4680BD00BF000C004038C00120D7
S31520003820594400202CC001205544002008C1012005
S31520003830BB3B002080B582B000AF0346FB71FB790D
S315200038409BB219460748FEF786F800BF8021054837
S31520003850FEF770FA0346002BF8D000BF0837BD46A6
S3152000386080BD00BF0010014080B500AF124801F0B6
S3152000387071FC03461A46114B1A60114B01221A603D
S31520003880104B00221A60104B1B68002B06D00E4BE3
S315200038901B680E4A1268002110469847084B0022E2
S315200038A01A60084B1B68002B01D000F05DFA054B0F
S315200038B000221A6000BF80BD000C0040208400203A
S315200038C01C84002010840020A08500204085002034
S315200038D080B500AF124801F03DFC03461A46114B55
S315200038E01A60114B01221A60104B00221A60104BED
S315200038F05B68002B06D00E4B5B680E4A526801218E
S3152000390010469847084B00221A60084B1B68002B6C
S3152000391001D000F029FA054B00221A6000BF80BDB5
S31520003920000C0040208400201C84002010840020ED
S31520003930A08500204085002080B500AF124801F008
S3152000394009FC03461A46114B1A60114B01221A60D4
S31520003950104B00221A60104B9B68002B06D00E4B92
S315200039609B680E4A9268022110469847084B00220F
S315200039701A60084B1B68002B01D000F0F5F9054BA7
S3152000398000221A6000BF80BD000C00402084002069
S315200039901C84002010840020A08500204085002063
S315200039A080B485B000AF786039600023FB603B6847
S315200039B01B68BB6004E0BB68FB60BB681B68BB6020
S315200039C0BB68002B05D0BB689A687B689B689A42C7
S315200039D0F1DD7B68BA681A60FB68002B03D13B686F
S315200039E07A681A6002E0FB687A681A6000BF1437AA
S315200039F0BD465DF8047B704780B485B000AF786023
S31520003A0039600023FB603B681B68BB6004E0BB6831
S31520003A10FB60BB681B68BB60BB68002B05D0BB681E
S31520003A205A687B685B689A42F1DD7B68BA681A60DF
S31520003A30FB68002B03D13B687A681A6002E0FB68BA
S31520003A407A681A6000BF1437BD465DF8047B70475C
S31520003A5080B584B000AF78607B681B68FB60FB682C
S31520003A60002B04D0FB681A687B681A600CE00948B2
S31520003A70FFF774FD002202210748FDF7C7FC07481F
S31520003A80FFF76CFD30BFFDE7FB6818461037BD46D3
S31520003A9080BD00BFC079002000040240CC79002000
S31520003AA080B584B000AF78607B681B68FB60FB68DC
S31520003AB0002B04D0FB681A687B681A600CE0094862
S31520003AC0FFF74CFD002202210748FDF79FFC07481F
S31520003AD0FFF744FD30BFFDE7FB6818461037BD46AB
S31520003AE080BD00BFC079002000040240D8790020A4
S31520003AF080B483B000AF786039603B681A687B6811
S31520003B001A603B687A681A6000BF0C37BD465DF8BC
S31520003B10047B704780B483B000AF786039603B681F
S31520003B201A687B689A603B687A681A6000BF0C370F
S31520003B30BD465DF8047B704780B485B000AF7860E1
S31520003B407B681B68FB60FB689A687B681A60FB6869
S31520003B5018461437BD465DF8047B704780B485B09F
S31520003B6000AF786039600023FB603B681B68BB6050
S31520003B7004E0BB68FB60BB681B68BB60BB68002BAE
S31520003B8003D0BA687B689A42F3D1BB68002B0DD06C
S31520003B90FB68002B04D0BB681A68FB681A6003E038
S31520003BA0BB681A683B681A60012300E000231846A8
S31520003BB01437BD465DF8047B704780B582B000AFF0
S31520003BC002211E4802F0D4FB1C4801F0C3FA03462A
S31520003BD07B6007E01A48FFF73BFF03461949184662
S31520003BE0FFF7DEFE164B1B68002B06D0144B1B6816
S31520003BF05A687B68D31A002BECDD114B1B68002B0F
S31520003C0016D00E4801F0A6FA03463B600C4B1B6803
S31520003C105B683A689A4204DD002202210A48FDF7D1
S31520003C20F5FB074B1B685B681946044801F0D0FD7D
S31520003C3000F09AF800BF0837BD4680BD000C004052
S31520003C401884002014840020000402400246024BFF
S31520003C501A6010DFF74600BF4C8500200246054B50
S31520003C601A60054B5B68044A43F080535360F7465D
S31520003C7000BF00BF4C85002000ED00E080B582B07B
S31520003C8000AF7860094B5B68C3F30803002B03D1B0
S31520003C907868FFF7DBFF02E07868FFF7DFFFFFF7C2
S31520003CA007FD00BF0837BD4680BD00BF00ED00E020
S31520003CB090B585B000AF234B1C682348FFF7C8FE9C
S31520003CC00346E360E368BB60FFF7F2FCBB68D86895
S31520003CD0BB681969BB685B691A4600F015F9FFF7DE
S31520003CE0D9FC1A49B868FFF703FF194B1B689B6874
S31520003CF0DB687B60144B1B68002B0AD07B68002B8B
S31520003D00D9D0114B1B689A687B689B68D31A002B05
S31520003D10D1DD0F48FFF710FF03460E491846FFF77F
S31520003D20F9FE0B4B1B68FB6003E0FB681B691B68F5
S31520003D30FB60FB681B69002BF7D1F868FFF79EFF35
S31520003D40B9E700BF987C0020148400208C7C0020DA
S31520003D50947C0020907C002080B500AF00F004F811
S31520003D60FFF7A6FC30BFFBE780B582B000AF144B4F
S31520003D701B68DB687B60134B1B68002B1BD0124B28
S31520003D801B68002B17D07B68002B07D00D4B1B68B8
S31520003D909A687B689B68D31A002B0CDA0A48FFF7CF
S31520003DA0CBFE034606491846FFF7B4FE044B1B68B4
S31520003DB01846FFF763FF00BF0837BD4680BD00BF2A
S31520003DC0947C002014840020907C002080B588B04C
S31520003DD000AFF860B9607A603B60EFF312833B6115
S31520003DE03B691B09012B14BF01230023DBB2FB77A0
S31520003DF0FFF750FC3A48FFF753FEB861BB697A6873
S31520003E00DA60BB693A681A61BB69BA6A5A61354B8E
S31520003E101B68002B04D1344B1B68DB685B6801E010
S31520003E20324B1B68FA681A44BB695A60BB695A68E8
S31520003E30BB68002B01DDBB6801E06FF000431A442C
S31520003E40BB699A602A4801F085F903467B61BB6904
S31520003E505A687B69D31A002B16DD2649B869FFF705
S31520003E60CBFD244B1B685B687A699A4204DD0022ED
S31520003E7002212148FDF7CAFA1E4B1B685B681946CA
S31520003E801B4801F0A5FC21E01C49B869FFF788FD15
S31520003E90FB7F002B1AD01A4B1B68002B16D0174B12
S31520003EA01B689A68174B1B68DB689B68D31A002B24
S31520003EB00CDA1348FFF740FE034612491846FFF76F
S31520003EC029FE104B1B681846FFF7D8FEFB7F002BF8
S31520003ED001D0FFF7EDFBBB6918462037BD4680BDF4
S31520003EE08C7C00201C840020987C002020840020CC
S31520003EF0000C004018840020000402401484002096
S31520003F00907C0020947C002080B588B000AFF860BB
S31520003F10B9607A60EFF312833B613B691B09012B81
S31520003F2014BF01230023DBB2FB76FFF7B3FBFB684C
S31520003F301B68FB61FB69002B37D003E0FB691B691B
S31520003F401B68FB61FB691B69002BF7D1304B1B6893
S31520003F50FA699A4202D0FB7E002B07D1FB7E002B0A
S31520003F6001D0FFF7A5FB4FF0FF334DE0FB685B6800
S31520003F70002B03D0FB685B6800221A61244B1A6869
S31520003F80FB685A60224B1B68FA681A61F869FFF7CA
S31520003F9075FE1F4B1B68DB68002B06D1FB7E002BB2
S31520003FA001D0FFF785FB00232EE0194B1A68FB682A
S31520003FB01A60FB7E002B05D0FB685B68012B01D0C5
S31520003FC0FFF776FBBB687968F86898477861FFF752
S31520003FD061FBFB6800221A60FB685B68FB61FB697A
S31520003FE0002B0BD0FB69012B08D0FB6800225A60FE
S31520003FF0FB6900221A61F869FFF740FEFB7E002B61
S3152000400001D0FFF755FB7B6918462037BD4680BD9A
S31520004010987C002080B586B000AF7860EFF31283DD
S31520004020FB60FB681B09012B14BF01230023DBB2B5
S31520004030FB74FFF72FFB1F497868FFF78FFD0346B8
S31520004040002B06D11C497868FFF788FD0346002B14
S3152000405004D01A497868FFF74BFD21E0184B1B68FE
S315200040607B611AE0174B1B687A699A4212D07B69EA
S31520004070DB687A689A420DD17B691A697B68DB68AE
S315200040809A4207D17B690022DA600C497868FFF7EB
S315200040902FFD05E07B699B687B617B69002BE1D165
S315200040A0FB7C002B01D0FFF703FB00BF1837BD4672
S315200040B080BD00BF18840020148400208C7C002042
S315200040C0947C0020987C002080B485B000AF786076
S315200040D0EFF31283FB60FB681B09012B04D0074B0F
S315200040E01B68DB685B6801E0054B1B687A68136018
S315200040F000BF1437BD465DF8047B7047987C0020CE
S315200041002084002080B485B000AF7860EFF312835E
S31520004110FB60FB681B09012B04D0084B1B68DB687E
S315200041205B6801E0064B1B687A6812689B1A184682
S315200041301437BD465DF8047B704700BF987C00208D
S315200041402084002080B483B000AFEFF312837B601D
S315200041507B681B09012B04D0064B1B68DB685B6858
S3152000416001E0054B1B6818460C37BD465DF8047BFD
S31520004170704700BF987C00202084002080B584B042
S3152000418000AFEFF312837B607B681B09012B14BF02
S3152000419001230023DBB2FB73FFF77CFA0C4800F007
S315200041A0D9FF0346BB60FB7B002B01D0FFF780FACB
S315200041B0FB7B002B04D0074B1B68DB685B6801E0A8
S315200041C0054B1B68BA68D31A18461037BD4680BD02
S315200041D0000C0040987C00202084002080B582B00E
S315200041E000AF00237B6012E07B685A1C13465B00FD
S315200041F01344DB00444A991843487A6813465B0007
S315200042001344DB00034419607B6801337B607B68C1
S315200042101C2BE9DD3C4B0022C3F8B82200237B602F
S3152000422013E07B685A1C13469B0013449B00374AB5
S31520004230991836487A6813469B0013449B0003441A
S31520004240083319607B6801337B607B68022BE8DDCD
S315200042502E4B00225A6400237B602FE02B497A687C
S3152000426013469B0013449B000B4404337A681A6060
S315200042707A6813469B0013449B00244A98187B684F
S315200042805B03234A13441946FFF742FA7A6813461A
S315200042909B0013449B001D4A13441E491846FFF7F2
S315200042A06BFA1A497A6813469B0013449B000B4409
S315200042B0103300221A607B6801337B607B68032BF6
S315200042C0CCDD154B4FF0FF325A60134B00229A601B
S315200042D0114B00221A61104B0022DA600F48FFF7BB
S315200042E03DF90F48FFF73AF90E48FFF737F90B4823
S315200042F0FFF734F90948FFF731F9FFF74FFA00BF06
S315200043000837BD4680BD00BFC085002050850020EF
S3152000431098880020B13C0020AC850020E47900205C
S31520004320E8790020F479002080B586B000AFF860E7
S31520004330B9601346FB71FB79022B3ED8EFF312834B
S315200043403B613B691B09012B14BF01230023DBB210
S31520004350FB75FFF79FF9FB79012B07D0022B09D0BC
S31520004360002B0BD1174B184A1A6014E0174B184A2A
S315200043701A6010E0174B184A1A600CE01748FFF72E
S31520004380EDF8002202211648FDF740F81548FFF700
S31520004390E5F830BFFDE7FB791349FA6841F8232099
S315200043A0FB791249BA6841F82320FB6801225A603A
S315200043B0FB7D002B01D0FFF77BF900BF1837BD46E8
S315200043C080BD00BFD4C001206938002090C00120E4
S315200043D0D13800209CC0012039390020C079002026
S315200043E000040240087A002040850020A085002095
S315200043F080B586B002AFF860B9607A60FFF74AF9F7
S31520004400FFF7ECFEBB68002B16D00F4800F0A2FE8B
S3152000441003461A460D4B1A600D4B01221A607B6823
S315200044200093BB68FA6800210020FFF7CFFC084BF9
S3152000443000221A60FFF798FCFFF78EFC002318462F
S315200044401037BD4680BD00BF000C004020840020F0
S315200044501C840020314900E03149EFF3088020ED2B
S31520004460108A7246EFF3118320E9FC0F2D4FD7F8FF
S315200044700080C8F800001EE00846FFF76FF82A48BB
S31520004480FFF76CF82948FFF769F8D8F80400FFF71A
S31520004490AFF82748FFF762F8D8F80000FFF77AF858
S315200044A02448FFF75BF8D8F800000068FFF772F899
S315200044B01D48FFF753F8DFF88080D8F80080C7F84A
S315200044C0008018E01D48FFF749F8D8F80400FFF7E8
S315200044D08FF81B48FFF742F8D8F80000FFF75AF884
S315200044E01448FFF73BF8D8F800000068FFF752F8A9
S315200044F00D48FFF733F8134A536843F000635360BF
S3152000450000BFD8F80000B0E8FC0F83F31188964668
S31520004510B0EC108A80F30888704700009C7C00204D
S31520004520AD7C0020987C00201D7D0020CE7C0020C4
S31520004530E67C0020EE7C00204C850020F77C0020C5
S315200045400C7D002000ED00E080B483B000AF7860E1
S315200045507B68064A82FB03125211DB17D31A1846D0
S315200045600C37BD465DF8047B704700BF1F85EB51B5
S3152000457080B594B000AF786039607B685A697B68F3
S315200045809B69D31AFB647B685A697B68DB69D31AFB
S31520004590BB647B689A697B68DB69D31A7B64FB6C96
S315200045A013F1630F5CDBFB6C632B59DCBB6C13F1E3
S315200045B0630F55DBBB6C632B52DC7B6C13F1630FF3
S315200045C04EDB7B6C632B4BDC7B685A697B689B6973
S315200045D01A447B68DB691344264A82FB0312DB17E5
S315200045E0D31A3B644EF660223B6C92FBF3F3FB63DB
S315200045F0FB6B1D2B25DDFB6BB3F5967F21DC07F1CD
S3152000460008003B6C1C4A642102F0AAFB07F1080350
S315200046101A461A491A48FFF777FC07F10800FB6B80
S31520004620184A642102F09CFB07F108031A46134935
S315200046301348FFF769FCFA6B13491448FFF764FC2B
S3152000464014E007F10800FB6B114A642102F088FB95
S3152000465007F108031A4609490948FFF755FC05E002
S315200046600C4B1A4605490648FFF74EFC00BF50374B
S31520004670BD4680BD56555555287A0020B7320020B4
S31520004680FC7E00203C7A0020F34B0020E47E0020B4
S31520004690547A00207C7A002090B59DB000AF7860D7
S315200046A039607B68DB68002B2ED1FFF74BFD034674
S315200046B01846FFF749FF02467B681A617B6801228C
S315200046C0DA607B689B6801335A4203F07F0302F06D
S315200046D07F0258BF53427A6893607B689B685A4230
S315200046E003F0030302F0030258BF534207F10C0004
S315200046F0364A642102F034FB07F10C031A4634498A
S315200047003448FFF701FC5CE0FFF71CFD0346324A04
S3152000471082FB03125211DB17D21A7B681B69D31A4C
S31520004720642B4EDD7B689B6801335A4203F07F037E
S3152000473002F07F0258BF53427A6893607B689B6879
S315200047405A4203F0030302F0030258BF534207F113
S315200047500C001E4A642102F003FB07F10C031A46E3
S315200047601B491C48FFF7D0FBFFF7ECFC0346184615
S31520004770FFF7EAFE04467B6818697B689968174B41
S3152000478083FB0132CB17D21A13465B001344CA1A95
S31520004790211A7868131D9B00034459607B689B6827
S315200047A003F00303002B03D100217868FFF7E0FE16
S315200047B0FFF7C8FC03461846FFF7C6FE02467B688D
S315200047C01A6100BF7437BD4690BD00BF987A00209D
S315200047D0B7320020FC7E00201F85EB5156555555DB
S315200047E080B588B002AF7860396007F10C031A46AD
S315200047F021492248FFF788FB7B68D3F8AC30002B91
S3152000480026D1FFF79FFC03461846FFF79DFE02467A
S315200048107B68C3F8B0207B680122C3F8AC203B7BC1
S315200048201A4617491748FFF76FFB0346B3F1FF3FB8
S3152000483005D1154B1A4615491548FFF765FB002388
S315200048400093144B7A6800210020FFF7BFFA0FE08F
S315200048503B7B1A460A490B48FFF756FB0346B3F142
S31520004860FF3F05D1084B1A4608490948FFF74CFB7C
S3152000487000BF1837BD4680BD612300201C83002061
S315200048807D6B0020FC840020AC7A0020B73200200B
S31520004890FC7E00209948002080B59EB002AF78604B
S315200048A039600021104802F09BF9F866FB6EB3F1DF
S315200048B0FF3F0DD007F10800FB6E0C4A642102F081
S315200048C04FFA07F108031A4609490A48FFF71CFB65
S315200048D000230093084B7A6800210848FFF776FAF0
S315200048E000BF7037BD4680BDFC840020BC7A002006
S315200048F0B7320020FC7E002099480020A0860100C7
S3152000490080B584B000AF786039603A682E492F4868
S31520004910FFF7FAFA2E4B1A462E492C48FFF7F4FADF
S315200049203B68742B14D17B689B687A6813440022F9
S315200049305A757B681533184602F0DAF9F8607B68F9
S3152000494000229A60FA6824492448FFF7DDFA36E007
S315200049503B686B2B14D17B689B687A6813440022D2
S315200049605A757B681533184602F0C2F9B8607B6821
S3152000497000229A60BA681A491A48FFF7C5FA1EE05B
S315200049803B68702B05D1002217491448FFF7BCFA63
S3152000499015E03B68732B05D1002214490F48FFF719
S315200049A0B3FA0CE07B689B683A68D1B27A68134404
S315200049B00A465A757B689B685A1C7B689A6000BFBA
S315200049C01037BD4680BD00BF0B330020FC7E002083
S315200049D0D07A0020B7320020F34B0020E47E00205E
S315200049E0D54B00208C7E0020494B0020474C0020D0
S315200049F080B584B002AF786039607B681B6A002B73
S31520004A000FD1114B1B681B78002B04D00E4B1B6853
S31520004A1000221A7005E07B68DA680B4B1B68D2B25D
S31520004A201A707B689B68094A82FB03129210DB1777
S31520004A30D01A00230093064B7A680021FFF7C6F9A7
S31520004A4000BF0837BD4680BD207D002067666666AC
S31520004A50F149002080B584B002AF786039607B6868
S31520004A6001225A617B681B69002B5DD100213048E9
S31520004A7000F0CDF87B68DB6819462D4800F08EF8EB
S31520004A807B689B684EF6602292FBF3F307EE903A22
S31520004A90B8EEE77A7B68DB68264A9B001344D3EDA1
S31520004AA0007A67EE277A9FED247A77EEC77A9FED14
S31520004AB0237A67EE877AFDEEE77A00230093204B70
S31520004AC01B4A002117EE900AFFF780F97B689B6846
S31520004AD04EF6602292FBF3F307EE903AB8EEE77AB1
S31520004AE07B68DB68134A9B001344D3ED007A67EE9C
S31520004AF0277A9FED127A67EE877AFDEEE77A002312
S31520004B000093104B7A68002117EE900AFFF75EF9A2
S31520004B107B68DB6801335A4203F01F0302F01F0251
S31520004B2058BF53427A68D36000BF0837BD4680BD60
S31520004B308C7E00200C7E0020000048420000C842E7
S31520004B402B4C0020554A002080B582B000AF7860FB
S31520004B50396000220D497868FFF7D6F97B685B69D2
S31520004B60002B05D000220A497868FFF7CDF909E025
S31520004B70002208490848FFF7C7F900220449786847
S31520004B80FFF7C2F900BF0837BD4680BD714C002033
S31520004B90554A0020F14900208C7E002080B483B045
S31520004BA000AF78603960094A3B6852F823207B6859
S31520004BB09B6A13440A33064A52F823207B689A607C
S31520004BC000BF0C37BD465DF8047B7047287D00206A
S31520004BD0A87D002080B483B000AF786039603B6840
S31520004BE05A1F7B689A6200BF0C37BD465DF8047B6E
S31520004BF0704780B483B000AF786039607B683A68CC
S31520004C009A6000BF0C37BD465DF8047B704780B4C0
S31520004C1083B000AF786039607B6800221A6200BFDB
S31520004C200C37BD465DF8047B704780B483B000AF77
S31520004C30786039607B6801221A6200BF0C37BD4656
S31520004C405DF8047B704780B582B000AF786039602C
S31520004C507B6801221A617B680022DA600021034802
S31520004C60FFF7E3FF00BF0837BD4680BD8C7E0020DE
S31520004C7080B483B000AF786039607B6800221A6107
S31520004C8000BF0C37BD465DF8047B704780B582B007
S31520004C9000AF78600B46FB70FB786D2B18D0752B18
S31520004CA002D0642B0AD01FE07B68DB68132B22DC42
S31520004CB07B68DB685A1C7B68DA601CE07B68DB68F3
S31520004CC0052B1ADD7B68DB685A1E7B68DA6014E0E8
S31520004CD07B68DB68002B03D17B680522DA600DE058
S31520004CE07B680022DA6009E0064B1A460649074827
S31520004CF0FFF70AF902E000BF00E000BF00BF083757
S31520004D00BD4680BDD47A0020B7320020FC7E00202C
S31520004D1080B584B002AF7860396000221349144808
S31520004D20FFF7F2F8002213491348FFF7EDF80022A7
S31520004D3012491348FFF7E8F8124B1A4612490E4853
S31520004D40FFF7E2F800230093104B114A00210020C0
S31520004D50FFF73CF8002300930E4B0F4A002100205A
S31520004D60FFF734F800BF0837BD4680BD1921002063
S31520004D701C83002011320020FC7E0020916A002036
S31520004D8098830020F07A0020B7320020554A002070
S31520004D90E47E0020F14900208C7E002080B500AF03
S31520004DA000220B490B48FFF7BFFA01220A490B489C
S31520004DB0FFF7BAFA02220A490A48FFF7B5FA002293
S31520004DC009490A48FFF714FB0023184680BD00BF97
S31520004DD041330020FC7E0020D92100201C830020A6
S31520004DE0216B002098830020114D0020288400206C
S31520004DF080B582B000AF78607B68604A934208D164
S31520004E0001210120FEF764F800210120FEF760F859
S31520004E10AFE07B68B3F1804F08D101210120FEF776
S31520004E2037F800210120FEF733F8A2E07B68544AC8
S31520004E30934208D101210220FEF72AF80021022000
S31520004E40FEF726F895E07B684E4A934208D1012169
S31520004E500420FEF71DF800210420FEF719F888E04B
S31520004E607B68494A934208D101210820FEF710F8B1
S31520004E7000210820FEF70CF87BE07B68434A93422A
S31520004E8008D101211020FEF703F800211020FDF79C
S31520004E90FFFF6EE07B683E4A934208D10121202025
S31520004EA0FDF7F6FF00212020FDF7F2FF61E07B6889
S31520004EB0384A934208D101210220FEF709F8002141
S31520004EC00220FEF705F854E07B68334A93420AD164
S31520004ED001214FF48030FDF7FBFF00214FF4803095
S31520004EE0FDF7F6FF45E07B682C4A93420AD1012163
S31520004EF04FF40030FDF7ECFF00214FF40030FDF7B2
S31520004F00E7FF36E07B68264A93420AD101214FF417
S31520004F108020FDF7DDFF00214FF48020FDF7D8FF2C
S31520004F2027E07B681F4A934208D101214020FDF7E4
S31520004F30AFFF00214020FDF7ABFF1AE07B681A4A3D
S31520004F40934208D101218020FDF7A2FF0021802075
S31520004F50FDF79EFF0DE07B68144A934209D101219B
S31520004F604FF48070FDF794FF00214FF48070FDF719
S31520004F708FFF00BF0837BD4680BD00BF000001403F
S31520004F800004004000080040000C004000100040D3
S31520004F90001400400004014000400140004401404C
S31520004FA00048014000180040001C0040002000403E
S31520004FB080B485B000AF786039600023FB817B68C0
S31520004FC01B88FB817B68294A934213D07B68284A39
S31520004FD093420FD07B68B3F1804F0BD07B68254A74
S31520004FE0934207D07B68244A934203D07B68234AA6
S31520004FF0934208D1FB8923F07003FB813B685A88D2
S31520005000FB891343FB817B681D4A93420CD07B6846
S315200050101C4A934208D0FB8923F44073FB813B68EA
S315200050201A89FB891343FB817B68FA891A803B68BE
S315200050305A687B68DA623B681A887B681A857B68BF
S315200050400A4A934203D07B68094A934204D13B68BB
S315200050509B7A9AB27B681A867B6801229A8200BF65
S315200050601437BD465DF8047B704700BF0000014041
S31520005070000401400004004000080040000C0040ED
S31520005080001000400014004080B483B000AF786068
S315200050907B684FF0FF325A607B6800221A807B685B
S315200050A000221A817B6800225A807B6800229A722D
S315200050B000BF0C37BD465DF8047B704780B483B0D3
S315200050C000AF78600B467B8013463B807B687A88EE
S315200050D01A857B683A889A8200BF0C37BD465DF8F0
S315200050E0047B704780B485B000AF78600B467B8028
S315200050F00023FB817B681B88FB81FB8923F07003DF
S31520005100FB81FA897B881343FB817B68FA891A80A5
S3152000511000BF1437BD465DF8047B704780B483B06A
S3152000512000AF786039607B683A685A6200BF0C37F6
S31520005130BD465DF8047B704780B483B000AF7860CD
S3152000514039607B683A68DA6200BF0C37BD465DF885
S31520005150047B704780B483B000AF78607B685B6A5D
S3152000516018460C37BD465DF8047B704780B483B083
S3152000517000AF78607B681B8D9BB218460C37BD4606
S315200051805DF8047B704780B483B000AF78600B462F
S31520005190FB70FB78002B08D07B681B889BB243F002
S315200051A002039AB27B681A8007E07B681B889BB251
S315200051B023F002039AB27B681A8000BF0C37BD46E3
S315200051C05DF8047B704780B483B000AF78600B46EF
S315200051D07B807B88002B08D07B681B889BB243F0A2
S315200051E004039AB27B681A8007E07B681B889BB20F
S315200051F023F004039AB27B681A8000BF0C37BD46A1
S315200052005DF8047B704780B483B000AF78600B46AE
S31520005210FB70FB78002B08D07B681B889BB243F081
S3152000522080039AB27B681A8007E07B681B889BB252
S3152000523023F080039AB27B681A8000BF0C37BD46E4
S315200052405DF8047B704780B483B000AF78600B466E
S315200052507B807B681B889BB223F008039AB27B680D
S315200052601A807B681B889AB27B8813439AB27B6824
S315200052701A8000BF0C37BD465DF8047B704780B4AA
S3152000528083B000AF78600B467B807B681B889BB21F
S3152000529023F440739AB27B681A807B681B889AB283
S315200052A07B8813439AB27B681A8000BF0C37BD46B1
S315200052B05DF8047B704780B483B000AF78600B46FE
S315200052C0FB70FB78002B08D07B681B889BB243F0D1
S315200052D001039AB27B681A8007E07B681B889BB221
S315200052E023F001039AB27B681A8000BF0C37BD46B3
S315200052F05DF8047B704780B485B000AF7860396074
S3152000530000237B810023FB810023BB817B681B8CD0
S315200053109BB223F001039AB27B681A847B681B8CAC
S31520005320FB817B689B88BB817B681B8B7B817B8910
S3152000533023F070037B817B8923F003037B813B6809
S315200053401A887B8913437B81FB8923F00203FB8127
S315200053503B689A89FB891343FB813B685A88FB8902
S315200053601343FB817B681F4A934203D07B681E4A06
S31520005370934223D1FB8923F00803FB813B68DA891A
S31520005380FB891343FB81FB8923F00403FB813B68E4
S315200053909A88FB891343FB81BB8923F48073BB81E5
S315200053A0BB8923F40073BB813B681A8ABB891343EC
S315200053B0BB813B685A8ABB891343BB817B68BA8908
S315200053C09A807B687A891A833B689A687B685A63D5
S315200053D07B68FA891A8400BF1437BD465DF8047BC2
S315200053E0704700BF000001400004014080B485B032
S315200053F000AF7860396000237B810023FB81002386
S31520005400BB817B681B8C9BB223F010039AB27B680E
S315200054101A847B681B8CFB817B689B88BB817B689D
S315200054201B8B7B817B8923F4E0437B817B8923F45F
S3152000543040737B813B681B881B029AB27B8913438E
S315200054407B81FB8923F02003FB813B689B891B0121
S315200054509AB2FB891343FB813B685B881B019AB296
S31520005460FB891343FB817B68224A934203D07B68E6
S31520005470214A93422BD1FB8923F08003FB813B6891
S31520005480DB891B019AB2FB891343FB81FB8923F03D
S315200054904003FB813B689B881B019AB2FB8913431F
S315200054A0FB81BB8923F48063BB81BB8923F4006322
S315200054B0BB813B681B8A9B009AB2BB891343BB8185
S315200054C03B685B8A9B009AB2BB891343BB817B688E
S315200054D0BA899A807B687A891A833B689A687B683E
S315200054E09A637B68FA891A8400BF1437BD465DF833
S315200054F0047B7047000001400004014080B485B061
