S01600002E2F44656275672F5254532D4C61622E73313936
S3152000000000BFDFF814D003F07AFF04F067FF03F097
S3152000001091BFFEE700BF000000C0012080B400AF02
S31520000020094B00221A60084B00225A60064B002218
S315200000309A60054B0022DA60034B044A5A6100BFDE
S31520000040BD465DF8047B7047003C0140FFFF7F0002
S3152000005080B485B000AF78600023FB60344BFB6032
S315200000607B689B79002B4FD0314B1A687B681B68C5
S31520000070DB432F4913400B602D4B5A687B681B6866
S31520000080DB432B4913404B607B681B791A46FB6880
S315200000901344FB60FB6819687B681A68FB680A438F
S315200000A01A60234B9A687B681B68DB432049134000
S315200000B08B601F4BDA687B681B68DB431C49134047
S315200000C0CB607B685B79102B0ED1194B9A687B68C5
S315200000D01B68174913438B60154BDA687B681B68CE
S315200000E013491343CB601DE0114BFB607B685B79A2
S315200000F01A46FB681344FB60FB6819687B681A681C
S31520000100FB680A431A600DE07B681B791A46FB6878
S315200001101344FB60FB6819687B681B68DA43FB683D
S315200001200A401A6000BF1437BD465DF8047B70474D
S31520000130003C014080B483B000AF78607B68002229
S315200001401A607B6800221A717B680C225A717B68C0
S3152000015000229A7100BF0C37BD465DF8047B7047BC
S3152000016080B483B000AF7860054B1A6904497B6878
S3152000017013430B6100BF0C37BD465DF8047B704707
S31520000180003C014080B485B000AF78600023FB734B
S31520000190084B5A697B681340002B02D00123FB735E
S315200001A001E00023FB73FB7B18461437BD465DF840
S315200001B0047B7047003C014080B483B000AF786078
S315200001C0044A7B68536100BF0C37BD465DF8047B4B
S315200001D0704700BF003C014080B485B000AF786016
S315200001E00023FB73084B5A697B681340002B02D00F
S315200001F00123FB7301E00023FB73FB7B18461437B6
S31520000200BD465DF8047B7047003C014080B483B056
S3152000021000AF7860044A7B68536100BF0C37BD4647
S315200002205DF8047B704700BF003C014080B582B07A
S3152000023000AF78607B680E4A93420AD101214FF0C5
S31520000240007003F0ABFC00214FF0007003F0A6FC19
S3152000025009E001214FF0806003F0A0FC00214FF05F
S31520000260806003F09BFC00BF0837BD4680BD00BF01
S315200002700064004080B485B000AF78603960002308
S31520000280FB730023BB607B681B6823F002027B683C
S315200002901A607B681B6843F001027B681A6002E0E3
S315200002A0BB680133BB607B685B6803F00103012BED
S315200002B004D0BB684FF6FF729342F1D17B685B682E
S315200002C003F00103012B02D00023FB739CE03B6863
S315200002D09B79012B06D17B681B6843F080027B68E3
S315200002E01A6005E07B681B6823F080027B681A6031
S315200002F03B68DB79012B06D17B681B6843F0400203
S315200003007B681A6005E07B681B6823F040027B68E7
S315200003101A603B681B7A012B06D17B681B6843F069
S3152000032020027B681A6005E07B681B6823F02002A8
S315200003307B681A603B685B7A012B06D17B681B6859
S3152000034043F010027B681A6005E07B681B6823F087
S3152000035010027B681A603B689B7A012B06D17B686A
S315200003601B6843F008027B681A6005E07B681B68FF
S3152000037023F008027B681A603B68DB7A012B06D1E2
S315200003807B681B6843F004027B681A6005E07B6883
S315200003901B6823F004027B681A603B689B789A07E7
S315200003A03B68DB781B061A433B681B791B041A4300
S315200003B03B685B791B051A433B681B88013B1A4344
S315200003C07B68DA617B681B6823F001027B681A6010
S315200003D00023BB6002E0BB680133BB607B685B68BF
S315200003E003F00103012B04D1BB684FF6FF72934241
S315200003F0F1D17B685B6803F00103012B02D1002356
S31520000400FB7301E00123FB73FB7B18461437BD46C3
S315200004105DF8047B704790B484B000AF7860002309
S31520000420FB607B689B7A1A4601239340FB605A4BFC
S31520000430D3F80032584A43F00103C2F80032564B33
S31520000440D3F81C22FB68DB4353491340C1F81C3206
S315200004507B681B7B002B29D14F4BD3F80C22FB68E2
S31520000460DB434D491340C1F80C327B68DB881B0403
S315200004707A685288144648497A68927A104643EA3E
S31520000480040200F1480341F833207B689B881B0453
S315200004907A681288144640497A68927A104643EA66
S315200004A0040200F14803DB000B445A607B681B7B87
S315200004B0012B28D1384BD3F80C223749FB6813433C
S315200004C0C1F80C327B681B881B047A685288144654
S315200004D031497A68927A104643EA040200F14803C9
S315200004E041F833207B689B881B047A68D28814469F
S315200004F029497A68927A104643EA040200F14803B1
S31520000500DB000B445A607B68DB7A002B09D1224B37
S31520000510D3F80422FB68DB431F491340C1F8043299
S3152000052007E01D4BD3F804221B49FB681343C1F88F
S3152000053004327B681B89002B08D1174BD3F8142271
S31520000540FB68DB4314491340C1F814327B681B89CE
S31520000550012B07D1104BD3F814220F49FB68134304
S31520000560C1F814327B685B7B012B07D10A4BD3F889
S315200005701C220949FB681343C1F81C32064BD3F8E9
S315200005800032054A23F00103C2F8003200BF1037BB
S31520000590BD4690BC704700BF0064004080B483B065
S315200005A000AF78607B6800229A717B680022DA713E
S315200005B07B6800221A727B6800225A727B680022AE
S315200005C09A727B680022DA727B6800229A707B68B6
S315200005D00022DA707B6803221A717B6802225A7124
S315200005E07B6801221A8000BF0C37BD465DF8047B6C
S315200005F0704780B483B000AF0346FB71144BD3F829
S315200006000032134A43F00103C2F80032104BD3F8EC
S3152000061000320F4A23F47C5323F00E03C2F8003233
S315200006200B4BD3F80022FB791B0209491343C1F86F
S315200006300032074BD3F80032054A23F00103C2F8F3
S31520000640003200BF0C37BD465DF8047B704700BF03
S315200006500064004080B483B000AF78600B46FB7026
S31520000660FB78002B06D07B681B6843F480327B68BE
S315200006701A6005E07B681B6823F480327B681A6069
S3152000068000BF0C37BD465DF8047B704780B483B04D
S3152000069000AF78600B46FB70FB78002B1ED07B6882
S315200006A01B6843F080027B681A607B68D3F884312C
S315200006B043F480727B68C3F884217B68D3F8943135
S315200006C043F480727B68C3F894217B68D3F8A43105
S315200006D043F480727B68C3F8A4211DE07B681B6805
S315200006E023F080027B681A607B68D3F8843123F478
S315200006F080727B68C3F884217B68D3F8943123F415
S3152000070080727B68C3F894217B68D3F8A43123F4E4
S3152000071080727B68C3F8A42100BF0C37BD465DF804
S31520000720047B704780B485B000AF786039600023C1
S31520000730FB737B689B6803F08063B3F1806F02D103
S315200007400023FB7315E07B689B6803F00063B3F11D
S31520000750006F02D10123FB730BE07B689B6803F0DB
S315200007608053B3F1805F02D10223FB7301E004239F
S31520000770FB73FB7B042B00F09F80FB7B7A6818338E
S315200007801B0113441A68FB7B02F0010279681833B7
S315200007901B010B441A603B681B7A002B13D1FB7B91
S315200007A07A6818331B01134419683B681B685B057C
S315200007B03A68527A1A43FB7B0A43796818331B013D
S315200007C00B441A6015E0FB7B7A6818331B0113442F
S315200007D019683B685B68DB003A68127A13433A680B
S315200007E0527A1A43FB7B0A43796818331B010B4460
S315200007F01A603B689B7A03F00F03DAB23B689A7261
S31520000800FB7B7A6818331B01134404331A68FB7B7D
S3152000081022F00F02796818331B010B4404331A6047
S31520000820FB7B7A6818331B01134404331A683B6830
S315200008309B7A1946FB7B0A43796818331B010B44C4
S3152000084004331A603B689B7B1A063B685B7B1B0460
S315200008501A433B681B7B1B021A433B68DB7A19460B
S31520000860FB7B0A4379681B010B4403F5C4731A60AA
S315200008703B689B7C1A063B685B7C1B041A433B68DF
S315200008801B7C1B021A433B68DB7B1946FB7B0A4316
S3152000089079681B010B4403F5C6731A60FB7B7A68E3
S315200008A018331B0113441A68FB7B42F00102796856
S315200008B018331B010B441A60FB7B18461437BD46C0
S315200008C05DF8047B704780B485B000AF78600B4636
S315200008D0FB700023FB60FB78012B09D0022B0DD087
S315200008E0002B11D17B689A68294B1340FB600EE0E0
S315200008F07B689A68274B1340FB6008E07B689A6800
S31520000900254B1340FB6002E00023FB6000BFFB6821
S31520000910224A934222D0FB68204A93420BD8FB6896
S315200009201F4A934217D0FB68194A93421CD0FB6892
S31520000930002B0DD021E0FB681A4A934211D0FB68A8
S31520000940154A934216D0FB68124A93420FD014E000
S315200009500223FB6014E00023FB6011E00023FB6010
S315200009600EE00023FB600BE00123FB6008E001237F
S31520000970FB6005E00123FB6002E00023FB6000BF73
S31520000980FB68DBB218461437BD465DF8047B70471A
S315200009900300000400030008000003100001000803
S315200009A0010000040000011080B483B000AF78601D
S315200009B00B46FB70FB78012B0AD0022B0FD0002BA5
S315200009C014D17B689B6843F080027B689A600EE0B6
S315200009D07B689B6843F400427B689A6007E07B68EB
S315200009E09B6843F400027B689A6000E000BF00BF6A
S315200009F00C37BD465DF8047B704780B485B000AFE8
S31520000A00F8600B467A60FB72FB7AFA681B331B018F
S31520000A1013441B68DBB203F00403DAB27B681A7254
S31520000A207B681B7A002B0BD1FB7AFA681B331B01E0
S31520000A3013441B685B0DC3F30A027B681A600AE045
S31520000A40FB7AFA681B331B0113441B68DB0823F06F
S31520000A5060427B685A60FB7AFA681B331B01134499
S31520000A601B68DBB203F00203DAB27B685A72FB7AA8
S31520000A70FA681B331B01134404331B68DBB203F0F3
S31520000A800F03DAB27B689A72FB7AFA681B331B0172
S31520000A90134404331B681B0ADAB27B68DA74FB7AC8
S31520000AA0FA681B01134403F5DC731B68DAB27B6812
S31520000AB0DA72FB7AFA681B01134403F5DC731B68B0
S31520000AC01B0ADAB27B681A73FB7AFA681B01134495
S31520000AD003F5DC731B681B0CDAB27B685A73FB7A4E
S31520000AE0FA681B01134403F5DC731B681B0EDAB28C
S31520000AF07B689A73FB7AFA681B01134403F5DE734D
S31520000B001B68DAB27B68DA73FB7AFA681B01134436
S31520000B1003F5DE731B681B0ADAB27B681A74FB7A4C
S31520000B20FA681B01134403F5DE731B681B0CDAB24B
S31520000B307B685A74FB7AFA681B01134403F5DE734B
S31520000B401B681B0EDAB27B689A74FB7A002B06D1DF
S31520000B50FB68DB6843F02002FB68DA6005E0FB688F
S31520000B601B6943F02002FB681A6100BF1437BD469B
S31520000B705DF8047B704780B483B000AF78600B4685
S31520000B80FB70FB78002B06D17B68DB6843F02002E4
S31520000B907B68DA6005E07B681B6943F020027B688E
S31520000BA01A6100BF0C37BD465DF8047B704780B4E0
S31520000BB085B000AF78600B46FB700023FB73FB7893
S31520000BC0002B06D17B68DB68DBB203F00303FB73E3
S31520000BD00BE0FB78012B06D17B681B69DBB203F0A7
S31520000BE00303FB7301E00023FB73FB7B18461437DA
S31520000BF0BD465DF8047B704780B485B000AF786051
S31520000C000B46FB700023FB734FF6FF73BB60FB782C
S31520000C10002B20D17B681B6823F0030343F00102DD
S31520000C207B681A6002E0BB68013BBB607B685B683F
S31520000C3003F00303012B02D0BB68002BF3D17B68A2
S31520000C405B6803F00303012B02D00023FB734AE009
S31520000C500123FB7347E0FB78012B1ED17B681B68C1
S31520000C6023F003027B681A6002E0BB68013BBB608D
S31520000C707B685B6803F00303002B02D0BB68002B64
S31520000C80F3D17B685B6803F00303002B02D00023BB
S31520000C90FB7328E00123FB7325E0FB78022B20D190
S31520000CA07B681B6823F0030343F002027B681A600B
S31520000CB002E0BB68013BBB607B685B6803F0030313
S31520000CC0022B02D0BB68002BF3D17B685B6803F054
S31520000CD00303022B02D00023FB7304E00123FB73E2
S31520000CE001E00023FB73FB7B18461437BD465DF8F5
S31520000CF0047B704780B485B000AF78600023FB7317
S31520000D007B681B6823F0030343F002027B681A60AA
S31520000D107B685B6803F00303022B01D10123FB737D
S31520000D20FB7B18461437BD465DF8047B704780B4BC
S31520000D3085B000AF78604FF6FF73FB600023FB722F
S31520000D407B681B6823F002027B681A6002E0FB685E
S31520000D50013BFB607B685B6803F00203022B02D138
S31520000D60FB68002BF3D17B685B6803F00203022B40
S31520000D7001D00123FB72FB7A18461437BD465DF875
S31520000D80047B704780B485B000AF78600023FB7386
S31520000D907B689B69DBB203F07003FB73FB7B184611
S31520000DA01437BD465DF8047B704780B485B000AF2C
S31520000DB078600023FB737B689B691B0EFB73FB7BB0
S31520000DC018461437BD465DF8047B704780B485B05D
S31520000DD000AF78600023FB737B689B691B0CFB7359
S31520000DE0FB7B18461437BD465DF8047B704780B4FC
S31520000DF085B000AFF860B9601346FB71FB79002B14
S31520000E0006D0FB685A69BB681A43FB685A6106E03C
S31520000E10FB685A69BB68DB431A40FB685A6100BF0E
S31520000E201437BD465DF8047B704780B485B000AFAB
S31520000E30786039600023FB733B6803F47003002B52
S31520000E400DD07B689A693B681340C3F31303002BCC
S31520000E5002D00123FB7348E00023FB7345E03B6887
S31520000E6003F08073002B0DD07B685A683B681340D3
S31520000E70C3F31303002B02D00123FB7335E00023B9
S31520000E80FB7332E03B6803F00063002B0DD07B68D8
S31520000E909A683B681340C3F31303002B02D0012347
S31520000EA0FB7322E00023FB731FE03B6803F0007313
S31520000EB0002B0DD07B68DA683B681340C3F313031D
S31520000EC0002B02D00123FB730FE00023FB730CE001
S31520000ED07B681A693B681340C3F31303002B02D0C7
S31520000EE00123FB7301E00023FB73FB7B18461437B9
S31520000EF0BD465DF8047B704780B485B000AF78604E
S31520000F0039600023FB603B68174A934203D17B6814
S31520000F1000229A6121E03B68C3F31303FB603B6820
S31520000F2003F00073002B03D07B68FA68DA6014E0C4
S31520000F303B6803F08063002B03D07B68FA681A6154
S31520000F400BE03B6803F00063002B03D07B68FA6854
S31520000F509A6002E07B68FA685A6000BF1437BD4683
S31520000F605DF8047B704700BF7000F03080B584B018
S31520000F7000AF786039600023FB737B685A693B6851
S31520000F801340002B00F0C2803B68402B72D03B6898
S31520000F90402B16D83B68042B48D03B68042B06D838
S31520000FA03B68012B30D03B68022B36D0AAE03B6849
S31520000FB0102B4DD03B68202B53D03B68082B3ED0BE
S31520000FC0A0E03B68B3F5006F00F08A803B68B3F57C
S31520000FD0006F0CD83B68B3F5007F6FD03B68B3F544
S31520000FE0806F74D03B68B3F5807F5ED08AE03B6823
S31520000FF0B3F5803F47D03B68B3F5003F4CD03B6804
S31520001000B3F5004F75D07DE07B689B684349184651
S3152000101000F004F90346FB737AE07B68DB68032162
S31520001020184600F0FBF80346FB7371E07B68DB682B
S315200010300821184600F0F2F80346FB7368E07B6847
S31520001040DB681021184600F0E9F80346FB735FE0E1
S315200010507B681B690321184600F0E0F80346FB7302
S3152000106056E07B681B690821184600F0D7F803462E
S31520001070FB734DE07B681B691021184600F0CEF803
S315200010800346FB7344E07B685B680821184600F042
S31520001090C5F80346FB733BE07B685B681021184666
S315200010A000F0BCF80346FB7332E07B689B690121A4
S315200010B0184600F0B3F80346FB7329E07B689B696A
S315200010C00221184600F0AAF80346FB7320E07B684D
S315200010D09B690421184600F0A1F80346FB7317E02C
S315200010E07B689B697021184600F098F80346FB73CD
S315200010F00EE07B685B680421184600F08FF80346F3
S31520001100FB7305E00023FB7300BF01E00023FB73A4
S31520001110FB7B18461037BD4680BD00BF010101008C
S3152000112080B483B000AF786039603B68B3F5807FC8
S3152000113051D03B68B3F5807F13D83B68082B36D057
S315200011403B68082B06D83B68012B28D03B68042B2C
S3152000115029D05AE03B68202B2DD03B68402B2ED03F
S3152000116053E03B68B3F5006F41D03B68B3F5006FA1
S3152000117008D83B68B3F5007F31D03B68B3F5806F64
S3152000118031D042E03B68B3F5803F1CD03B68B3F5D5
S31520001190003F1CD03B68B3F5004F2FD035E07B686D
S315200011A01D4A9A6031E07B680822DA602DE07B6870
S315200011B01022DA6029E07B6808221A6125E07B6824
S315200011C010221A6121E07B6808225A601DE07B68A4
S315200011D010225A6019E07B6804225A6015E07B6869
S315200011E004225A6011E07B6804225A600DE07B6875
S315200011F000229A617B6804225A6006E07B680022FE
S315200012009A617B6804225A6000BF00BF0C37BD4636
S315200012105DF8047B704700BF0101010080B485B0F2
S3152000122000AF786039600023FB737A683B6813400F
S31520001230002B02D00123FB7301E00023FB73FB7B11
S3152000124018461437BD465DF8047B704780B483B0DA
S3152000125000AF0346FB71FB7903F01F03012202FA5C
S3152000126003F1064A97F907305B0942F8231000BFBD
S315200012700C37BD465DF8047B704700BF00E100E0F7
S3152000128080B483B000AF03463960FB7197F907300D
S31520001290002B0BDA3B68DAB20C49FB7903F00F031B
S315200012A0043B1201D2B20B441A7609E03B68DAB24B
S315200012B0074997F907301201D2B20B4483F800236D
S315200012C000BF0C37BD465DF8047B704700ED00E09B
S315200012D000E100E080B582B000AF786039607B68BD
S315200012E000229A617B689A697B685A617B685A6991
S315200012F07B68DA61012240F225510A4805F006FA98
S31520001300002240F22771074805F000FA0221252025
S31520001310FFF7B6FF2520FFF799FF00BF0837BD4628
S3152000132080BD00BF0010014080B483B000AF78605C
S315200013300B46FB707B68DB69B3F5806F17DA7B6839
S315200013405B697A681344FA7883F820207B685B69A6
S3152000135001335A42C3F30903C2F3090258BF534269
S315200013607A6853617B68DB695A1C7B68DA6100BF47
S315200013700C37BD465DF8047B704780B582B000AF60
S31520001380786039607B68DB69002B18D17B689B68A5
S31520001390012240F22771184605F0B8F90FE03B68A4
S315200013A01B780A2B03D10D217868FFF7BDFF3B6818
S315200013B05A1C3A601B7819467868FFF7B5FF3B68D8
S315200013C01B78002BEBD100BF0837BD4680BD80B50A
S315200013D082B000AF786039607B68DB69002B07D16B
S315200013E07B689B68012240F22771184605F08EF92A
S315200013F03B68DBB219467868FFF796FF00BF0837CF
S31520001400BD4680BD80B586B002AF786039607B6806
S315200014109B682021184605F0C1F90346012B18D1F7
S315200014207B689B68184604F0DCFF0346FB607B68FC
S31520001430DB68002B0DD07B68DA687B681969FB684E
S3152000144000930B460021002004F0EEF9234B0122E5
S315200014501A607B689B688021184605F09FF9034631
S31520001460012B35D17B68DB69002B29DD7B689868E9
S315200014707B689B697A68134493F820309BB219469F
S3152000148004F09DFF7B689B6901335A42C3F309032D
S31520001490C2F3090258BF53427A6893617B68DB69BD
S315200014A05A1E7B68DA617B68DB69002B10D17B686A
S315200014B09B68002240F22771184605F027F907E0BD
S315200014C07B689B68002240F22771184605F01EF9BA
S315200014D0002318461037BD4680BD00BF5886002021
S315200014E080B582B000AF78607B68604A934208D1AD
S315200014F00121012002F072FB0021012002F06EFB87
S31520001500AFE07B68B3F1804F08D10121012002F0C2
S3152000151045FB0021012002F041FBA2E07B68544AF2
S31520001520934208D10121022002F038FB002102203B
S3152000153002F034FB95E07B684E4A934208D10121A4
S31520001540042002F02BFB0021042002F027FB88E078
S315200015507B68494A934208D10121082002F01EFBEC
S315200015600021082002F01AFB7BE07B68434A934265
S3152000157008D10121102002F011FB0021102002F0D9
S315200015800DFB6EE07B683E4A934208D10121202064
S3152000159002F004FB0021202002F000FB61E07B68C2
S315200015A0384A934208D10121022002F017FB00217C
S315200015B0022002F013FB54E07B68334A93420AD19F
S315200015C001214FF4803002F009FB00214FF48030D6
S315200015D002F004FB45E07B682C4A93420AD10121A4
S315200015E04FF4003002F0FAFA00214FF4003002F0F6
S315200015F0F5FA36E07B68264A93420AD101214FF458
S31520001600802002F0EBFA00214FF4802002F0E6FA67
S3152000161027E07B681F4A934208D10121402002F02F
S31520001620BDFA0021402002F0B9FA1AE07B681A4A76
S31520001630934208D10121802002F0B0FA00218020B7
S3152000164002F0ACFA0DE07B68144A934209D10121DD
S315200016504FF4807002F0A2FA00214FF4807002F05D
S315200016609DFA00BF0837BD4680BD00BF000001407F
S315200016700004004000080040000C0040001000401C
S315200016800014004000040140004001400044014095
S315200016900048014000180040001C00400020004087
S315200016A080B485B000AF786039600023FB817B6809
S315200016B01B88FB817B68294A934213D07B68284A82
S315200016C093420FD07B68B3F1804F0BD07B68254ABD
S315200016D0934207D07B68244A934203D07B68234AEF
S315200016E0934208D1FB8923F07003FB813B685A881B
S315200016F0FB891343FB817B681D4A93420CD07B6890
S315200017001C4A934208D0FB8923F44073FB813B6833
S315200017101A89FB891343FB817B68FA891A803B6807
S315200017205A687B68DA623B681A887B681A857B6808
S315200017300A4A934203D07B68094A934204D13B6804
S315200017409B7A9AB27B681A867B6801229A8200BFAE
S315200017501437BD465DF8047B704700BF000001408A
S31520001760000401400004004000080040000C004036
S31520001770001000400014004080B483B000AF7860B1
S315200017807B684FF0FF325A607B6800221A807B68A4
S3152000179000221A817B6800225A807B6800229A7276
S315200017A000BF0C37BD465DF8047B704780B483B01C
S315200017B000AF78600B467B8013463B807B687A8837
S315200017C01A857B683A889A8200BF0C37BD465DF839
S315200017D0047B704780B485B000AF78600B467B8071
S315200017E00023FB817B681B88FB81FB8923F0700328
S315200017F0FB81FA897B881343FB817B68FA891A80EF
S3152000180000BF1437BD465DF8047B704780B483B0B3
S3152000181000AF786039607B683A685A6200BF0C373F
S31520001820BD465DF8047B704780B483B000AF786016
S3152000183039607B683A68DA6200BF0C37BD465DF8CE
S31520001840047B704780B483B000AF78607B685B6AA6
S3152000185018460C37BD465DF8047B704780B483B0CC
S3152000186000AF78607B681B8D9BB218460C37BD464F
S315200018705DF8047B704780B483B000AF78600B4678
S31520001880FB70FB78002B08D07B681B889BB243F04B
S3152000189002039AB27B681A8007E07B681B889BB29A
S315200018A023F002039AB27B681A8000BF0C37BD462C
S315200018B05DF8047B704780B483B000AF78600B4638
S315200018C07B807B88002B08D07B681B889BB243F0EB
S315200018D004039AB27B681A8007E07B681B889BB258
S315200018E023F004039AB27B681A8000BF0C37BD46EA
S315200018F05DF8047B704780B483B000AF78600B46F8
S31520001900FB70FB78002B08D07B681B889BB243F0CA
S3152000191080039AB27B681A8007E07B681B889BB29B
S3152000192023F080039AB27B681A8000BF0C37BD462D
S315200019305DF8047B704780B483B000AF78600B46B7
S315200019407B807B681B889BB223F008039AB27B6856
S315200019501A807B681B889AB27B8813439AB27B686D
S315200019601A8000BF0C37BD465DF8047B704780B4F3
S3152000197083B000AF78600B467B807B681B889BB268
S3152000198023F440739AB27B681A807B681B889AB2CC
S315200019907B8813439AB27B681A8000BF0C37BD46FA
S315200019A05DF8047B704780B483B000AF78600B4647
S315200019B0FB70FB78002B08D07B681B889BB243F01A
S315200019C001039AB27B681A8007E07B681B889BB26A
S315200019D023F001039AB27B681A8000BF0C37BD46FC
S315200019E05DF8047B704780B485B000AF78603960BD
S315200019F000237B810023FB810023BB817B681B8C1A
S31520001A009BB223F001039AB27B681A847B681B8CF5
S31520001A10FB817B689B88BB817B681B8B7B817B8959
S31520001A2023F070037B817B8923F003037B813B6852
S31520001A301A887B8913437B81FB8923F00203FB8170
S31520001A403B689A89FB891343FB813B685A88FB894B
S31520001A501343FB817B681F4A934203D07B681E4A4F
S31520001A60934223D1FB8923F00803FB813B68DA8963
S31520001A70FB891343FB81FB8923F00403FB813B682D
S31520001A809A88FB891343FB81BB8923F48073BB812E
S31520001A90BB8923F40073BB813B681A8ABB89134335
S31520001AA0BB813B685A8ABB891343BB817B68BA8951
S31520001AB09A807B687A891A833B689A687B685A631E
S31520001AC07B68FA891A8400BF1437BD465DF8047B0B
S31520001AD0704700BF000001400004014080B485B07B
S31520001AE000AF7860396000237B810023FB810023CF
S31520001AF0BB817B681B8C9BB223F010039AB27B6858
S31520001B001A847B681B8CFB817B689B88BB817B68E6
S31520001B101B8B7B817B8923F4E0437B817B8923F4A8
S31520001B2040737B813B681B881B029AB27B891343D7
S31520001B307B81FB8923F02003FB813B689B891B016A
S31520001B409AB2FB891343FB813B685B881B019AB2DF
S31520001B50FB891343FB817B68224A934203D07B682F
S31520001B60214A93422BD1FB8923F08003FB813B68DA
S31520001B70DB891B019AB2FB891343FB81FB8923F086
S31520001B804003FB813B689B881B019AB2FB89134368
S31520001B90FB81BB8923F48063BB81BB8923F400636B
S31520001BA0BB813B681B8A9B009AB2BB891343BB81CE
S31520001BB03B685B8A9B009AB2BB891343BB817B68D7
S31520001BC0BA899A807B687A891A833B689A687B6887
S31520001BD09A637B68FA891A8400BF1437BD465DF87C
S31520001BE0047B7047000001400004014080B485B0AA
S31520001BF000AF7860396000237B810023FB810023BE
S31520001C00BB817B681B8C9BB223F480739AB27B6862
S31520001C101A847B681B8CFB817B689B88BB817B68D5
S31520001C209B8B7B817B8923F070037B817B8923F0CF
S31520001C3003037B813B681A887B8913437B81FB895D
S31520001C4023F40073FB813B689B891B029AB2FB89B4
S31520001C501343FB813B685B881B029AB2FB891343C3
S31520001C60FB817B68224A934203D07B68214A9342B8
S31520001C702BD1FB8923F40063FB813B68DB891B02A4
S31520001C809AB2FB891343FB81FB8923F48063FB8192
S31520001C903B689B881B029AB2FB891343FB81BB8955
S31520001CA023F48053BB81BB8923F40053BB813B685B
S31520001CB01B8A1B019AB2BB891343BB813B685B8A93
S31520001CC01B019AB2BB891343BB817B68BA899A8070
S31520001CD07B687A899A833B689A687B68DA637B6833
S31520001CE0FA891A8400BF1437BD465DF8047B704715
S31520001CF0000001400004014080B485B000AF786048
S31520001D0039600023BB8100237B810023FB817B6814
S31520001D101B8C9BB223F480539AB27B681A847B680F
S31520001D201B8C7B817B689B88FB817B689B8BBB8123
S31520001D30BB8923F4E043BB81BB8923F44073BB8179
S31520001D403B681B881B029AB2BB891343BB817B89E4
S31520001D5023F400537B813B689B891B039AB27B89C2
S31520001D6013437B813B685B881B039AB27B891343B1
S31520001D707B817B68124A934203D07B68114A934247
S31520001D800AD1FB8923F48043FB813B681B8A9B0194
S31520001D909AB2FB891343FB817B68FA899A807B6818
S31520001DA0BA899A833B689A687B681A647B687A89C1
S31520001DB01A8400BF1437BD465DF8047B704700BF08
S31520001DC0000001400004014080B483B000AF786079
S31520001DD07B6800221A807B6800225A807B6800225A
S31520001DE09A807B6800229A607B6800229A817B68B1
S31520001DF00022DA817B6800221A827B6800225A82BE
S31520001E0000BF0C37BD465DF8047B704780B485B0B3
S31520001E1000AF78600B467B8013463B800023FB6037
S31520001E2000237B817B68FB60FB681833FB607B8823
S31520001E30012202FA03F37B817B681B8C9AB27B8991
S31520001E40DB439BB213409AB27B681A847B88002BB3
S31520001E5002D07B88082B14D17B885B089BB21A465C
S31520001E60FB681344FB60FB681968FA684FF68F73AA
S31520001E700B401360FB6819683A88FB680A431A60AE
S31520001E8018E07B88043B9BB25B089BB21A46FB6832
S31520001E901344FB60FB681968FA6848F6FF730B4029
S31520001EA01360FB681A683B881B029BB21946FB68C5
S31520001EB00A431A6000BF1437BD465DF8047B70479D
S31520001EC080B483B000AF786039607B683A685A6323
S31520001ED000BF0C37BD465DF8047B704780B483B0E5
S31520001EE000AF786039607B683A689A6300BF0C3728
S31520001EF0BD465DF8047B704780B483B000AF786040
S31520001F0039607B683A68DA6300BF0C37BD465DF8F6
S31520001F10047B704780B483B000AF786039607B68FB
S31520001F203A681A6400BF0C37BD465DF8047B7047DB
S31520001F3080B485B000AF78600B467B800023FB81A0
S31520001F407B681B8BFB81FB8923F07003FB81FA895D
S31520001F507B881343FB817B68FA891A8300BF143779
S31520001F60BD465DF8047B704780B485B000AF7860CD
S31520001F700B467B800023FB817B681B8BFB81FB89C7
S31520001F8023F4E043FB817B881B029AB2FB8913432F
S31520001F90FB817B68FA891A8300BF1437BD465DF83A
S31520001FA0047B704780B485B000AF78600B467B8099
S31520001FB00023FB817B689B8BFB81FB8923F07003CD
S31520001FC0FB81FA897B881343FB817B68FA899A8394
S31520001FD000BF1437BD465DF8047B704780B485B0DA
S31520001FE000AF78600B467B800023FB817B689B8B50
S31520001FF0FB81FB8923F4E043FB817B881B029AB299
S31520002000FB891343FB817B68FA899A8300BF1437C7
S31520002010BD465DF8047B704780B485B000AF78601C
S315200020200B467B800023FB817B681B8BFB81FB8916
S3152000203023F00803FB81FA897B881343FB817B68A5
S31520002040FA891A8300BF1437BD465DF8047B7047B2
S3152000205080B485B000AF78600B467B800023FB817F
S315200020607B681B8BFB81FB8923F40063FB817B88C8
S315200020701B029AB2FB891343FB817B68FA891A8378
S3152000208000BF1437BD465DF8047B704780B485B029
S3152000209000AF78600B467B800023FB817B689B8B9F
S315200020A0FB81FB8923F00803FB81FA897B88134394
S315200020B0FB817B68FA899A8300BF1437BD465DF899
S315200020C0047B704780B485B000AF78600B467B8078
S315200020D00023FB817B689B8BFB81FB8923F40063B8
S315200020E0FB817B881B029AB2FB891343FB817B68A9
S315200020F0FA899A8300BF1437BD465DF8047B704782
S3152000210080B485B000AF78600B467B800023FB81CE
S315200021107B681B8BFB81FB8923F00403FB81FA89F7
S315200021207B881343FB817B68FA891A8300BF1437A7
S31520002130BD465DF8047B704780B485B000AF7860FB
S315200021400B467B800023FB817B681B8BFB81FB89F5
S3152000215023F48063FB817B881B029AB2FB8913439D
S31520002160FB817B68FA891A8300BF1437BD465DF868
S31520002170047B704780B485B000AF78600B467B80C7
S315200021800023FB817B689B8BFB81FB8923F0040367
S31520002190FB81FA897B881343FB817B68FA899A83C2
S315200021A000BF1437BD465DF8047B704780B485B008
S315200021B000AF78600B467B800023FB817B689B8B7E
S315200021C0FB81FB8923F48063FB817B881B029AB207
S315200021D0FB891343FB817B68FA899A8300BF1437F6
S315200021E0BD465DF8047B704780B485B000AF78604B
S315200021F00B467B800023FB817B681B8BFB81FB8945
S3152000220023F08003FB81FA897B881343FB817B685B
S31520002210FA891A8300BF1437BD465DF8047B7047E0
S3152000222080B485B000AF78600B467B800023FB81AD
S315200022307B681B8BFB81FB89C3F30E03FB817B88A9
S315200022401B029AB2FB891343FB817B68FA891A83A6
S3152000225000BF1437BD465DF8047B704780B485B057
S3152000226000AF78600B467B800023FB817B689B8BCD
S31520002270FB81FB8923F08003FB81FA897B8813434A
S31520002280FB817B68FA899A8300BF1437BD465DF8C7
S31520002290047B704780B485B000AF78600B467B80A6
S315200022A00023FB817B689B8BFB81FB89C3F30E0399
S315200022B0FB817B881B029AB2FB891343FB817B68D7
S315200022C0FA899A8300BF1437BD465DF8047B7047B0
S315200022D080B485B000AF78600B467B800023FB81FD
S315200022E07B681B8CFB81FB8923F00203FB81FA8927
S315200022F07B881343FB817B68FA891A8400BF1437D5
S31520002300BD465DF8047B704780B485B000AF786029
S315200023100B467B800023FB817B681B8CFB81FB8922
S3152000232023F00803FB81FA897B881343FB817B68B2
S31520002330FA891A8400BF1437BD465DF8047B7047BE
S3152000234080B485B000AF78600B467B800023FB818C
S315200023507B681B8CFB81FB8923F02003FB817B8818
S315200023601B019AB2FB891343FB817B68FA891A8485
S3152000237000BF1437BD465DF8047B704780B485B036
S3152000238000AF78600B467B800023FB817B681B8C2B
S31520002390FB81FB8923F08003FB817B881B019AB29A
S315200023A0FB891343FB817B68FA891A8400BF1437A3
S315200023B0BD465DF8047B704780B485B000AF786079
S315200023C00B467B800023FB817B681B8CFB81FB8972
S315200023D023F40073FB817B881B029AB2FB8913438B
S315200023E0FB817B68FA891A8400BF1437BD465DF8E5
S315200023F0047B704780B485B000AF78600B467B8045
S315200024000023FB817B681B8CFB81FB8923F4006303
S31520002410FB817B881B029AB2FB891343FB817B6875
S31520002420FA891A8400BF1437BD465DF8047B7047CD
S3152000243080B485B000AF78600B467B800023FB819B
S315200024407B681B8CFB81FB8923F40053FB817B88F3
S315200024501B039AB2FB891343FB817B68FA891A8492
S3152000246000BF1437BD465DF8047B704780B485B045
S3152000247000AF78600B467B8013463B800023FB81B0
S315200024807B88012202FA03F3FB817B681B8C9AB2BC
S31520002490FB89DB439BB213409AB27B681A847B6824
S315200024A01B8C9AB239887B8801FA03F39BB21343BB
S315200024B09AB27B681A8400BF1437BD465DF8047B48
S315200024C0704780B485B000AF78600B467B8013469A
S315200024D03B800023FB817B88042202FA03F3FB81E5
S315200024E07B681B8C9AB2FB89DB439BB213409AB262
S315200024F07B681A847B681B8C9AB239887B8801FAA0
S3152000250003F39BB213439AB27B681A8400BF143735
S31520002510BD465DF8047B704780B582B000AF786019
S3152000252039603B681B88002B0FD13B6859883B6874
S315200025309A883B681B89786800F0B7FC3B68DB8883
S315200025401946786800F0E1F836E03B681B88042BD2
S315200025500FD13B6859883B689A883B681B89786805
S3152000256000F0E6FC3B68DB881946786800F0E9F85D
S3152000257022E03B681B88082B0FD13B6859883B68B3
S315200025809A883B681B89786800F01FFD3B68DB88CA
S315200025901946786800F0F3F80EE03B6859883B68E6
S315200025A09A883B681B89786800F057FD3B68DB8872
S315200025B01946786800F0FFF800BF0837BD4680BD91
S315200025C080B483B000AF78607B6800221A807B6875
S315200025D000225A807B6801229A807B680022DA805A
S315200025E07B6800221A8100BF0C37BD465DF8047B4C
S315200025F0704780B584B000AF786039600023FB81D6
S315200026000123BB813B685B88002B02D10223FB811F
S3152000261001E00023FB813B689B88012B02D102232A
S31520002620BB8101E00123BB813B681B88002B1CD1A9
S315200026303B6859883B689A883B681B89786800F014
S3152000264034FC3B68DB881946786800F05EF83B6806
S315200026501B89BA89F989786800F06AFC3B68DB88AF
S315200026601946786800F06DF81BE03B6859883B688E
S315200026709A883B681B89786800F05AFC3B68DB889F
S315200026801946786800F05DF83B681B89BA89F98994
S31520002690786800F00AFC3B68DB881946786800F009
S315200026A034F800BF1037BD4680BD80B483B000AF7C
S315200026B078607B685B6B18460C37BD465DF8047BFB
S315200026C0704780B483B000AF78607B689B6B1846F8
S315200026D00C37BD465DF8047B704780B483B000AFED
S315200026E078607B68DB6B18460C37BD465DF8047B4B
S315200026F0704780B483B000AF78607B681B6C184647
S315200027000C37BD465DF8047B704780B483B000AFBC
S3152000271078600B467B807B681B8B9BB223F00C0377
S315200027209AB27B681A837B681B8B9AB27B88134389
S315200027309AB27B681A8300BF0C37BD465DF8047BCE
S31520002740704780B483B000AF78600B467B807B688F
S315200027501B8B9BB223F440639AB27B681A837B68F7
S315200027601B8B9AB27B881B029BB213439AB27B685F
S315200027701A8300BF0C37BD465DF8047B704780B4D2
S3152000278083B000AF78600B467B807B689B8B9BB2C7
S3152000279023F00C039AB27B689A837B689B8B9AB250
S315200027A07B8813439AB27B689A8300BF0C37BD4659
S315200027B05DF8047B704780B483B000AF78600B4629
S315200027C07B807B689B8B9BB223F440639AB27B68A9
S315200027D09A837B689B8B9AB27B881B029BB213439E
S315200027E09AB27B689A8300BF0C37BD465DF8047B9E
S315200027F0704780B483B000AF786039603B681A8830
S315200028003B685B8813439AB23B689B8813439AB212
S315200028103B68DB8813439AB23B681B8913439AB201
S315200028203B685B8913439AB23B689B8913439AB2F0
S315200028307B68A3F8442000BF0C37BD465DF8047BB7
S31520002840704780B483B000AF78607B6800221A801E
S315200028507B6800225A807B6800229A807B6800224F
S31520002860DA807B6800221A817B6800225A817B6885
S3152000287000229A8100BF0C37BD465DF8047B704765
S3152000288080B483B000AF78600B46FB70FB78002BDA
S315200028900CD07B68B3F844309BB26FEA43436FEAAF
S315200028A053439AB27B68A3F8442009E07B68B3F8C7
S315200028B044309BB2C3F30E039AB27B68A3F844203C
S315200028C000BF0C37BD465DF8047B704780B483B0EB
S315200028D000AF78600B46FB70FB78002B08D07B6836
S315200028E09B889BB243F004039AB27B689A8007E0E8
S315200028F07B689B889BB223F004039AB27B689A80FC
S3152000290000BF0C37BD465DF8047B704780B483B0AA
S3152000291000AF78600B46FB70FB78002B08D07B68F5
S315200029209B889BB243F001039AB27B689A8007E0AA
S315200029307B689B889BB223F001039AB27B689A80BE
S3152000294000BF0C37BD465DF8047B704780B483B06A
S3152000295000AF78600B467B8013467B707B78002B1C
S3152000296008D07B689B899AB27B8813439AB27B688E
S315200029709A8109E07B689B899AB27B88DB439BB26C
S3152000298013409AB27B689A8100BF0C37BD465DF82A
S31520002990047B704780B483B000AF78600B467B80A1
S315200029A07B687A889A8200BF0C37BD465DF8047B27
S315200029B0704780B485B000AF78600B467B800023DB
S315200029C0FB737B681B8A9AB27B8813409BB2002BD1
S315200029D002D00123FB7301E00023FB73FB7B184627
S315200029E01437BD465DF8047B704780B483B000AFD2
S315200029F078600B467B807B88DB439AB27B681A82A1
S31520002A0000BF0C37BD465DF8047B704780B485B0A7
S31520002A1000AF78600B467B800023FB730023BB81CD
S31520002A2000237B817B681B8A9AB27B881340BB81FB
S31520002A307B689B899AB27B8813407B81BB89002B5C
S31520002A4005D07B89002B02D00123FB7301E00023F4
S31520002A50FB73FB7B18461437BD465DF8047B704735
S31520002A6080B483B000AF78600B467B807B88DB43E5
S31520002A709AB27B681A8200BF0C37BD465DF8047B8C
S31520002A80704780B483B000AF78600B467B801346D6
S31520002A903B807A883B8813439AB27B68A3F8482008
S31520002AA000BF0C37BD465DF8047B704780B483B009
S31520002AB000AF78600B467B8013467B707B78002BBB
S31520002AC008D07B689B899AB27B8813439AB27B682D
S31520002AD09A8109E07B689B899AB27B88DB439BB20B
S31520002AE013409AB27B689A8100BF0C37BD465DF8C9
S31520002AF0047B704780B483B000AF78600B46FB70D0
S31520002B00FB78002B08D07B689B889BB243F0080398
S31520002B109AB27B689A8007E07B689B889BB223F0F9
S31520002B2008039AB27B689A8000BF0C37BD465DF8D1
S31520002B30047B704780B483B000AF78607B681B89C4
S31520002B409BB223F007039AB27B681A8100BF0C3729
S31520002B50BD465DF8047B704780B582B000AF7860D3
S31520002B600B467B807B881946786800F088F87B685E
S31520002B701B899BB243F007039AB27B681A8100BF78
S31520002B800837BD4680BD80B584B000AFF8600846E2
S31520002B9011461A4603467B810B463B811346FB8032
S31520002BA07B89602B06D1FB8839890122F86800F0E1
S31520002BB0BFF905E0FB8839890122F86800F075F92C
S31520002BC07B891946F86800F05AF8FB681B899BB286
S31520002BD043F007039AB2FB681A8100BF1037BD463F
S31520002BE080BD80B586B000AFF860084611461A460B
S31520002BF003467B810B463B811346FB800023FB82E9
S31520002C00FB883A897989F86800F0A9F8FB681B895E
S31520002C10FB82FB8A23F00703FB82FB8A43F0070330
S31520002C20FB82FB8A23F07003FB82FB8A43F070034E
S31520002C30FB82FB68FA8A1A8100BF1837BD4680BD21
S31520002C4080B584B000AFF860084611461A460346A0
S31520002C507B810B463B811346FB80FB883A89798929
S31520002C60F86800F07CF8FB681B899BB243F480432C
S31520002C709AB2FB681A8100BF1037BD4680BD80B46A
S31520002C8085B000AF78600B467B800023FB817B6894
S31520002C901B89FB81FB8923F07003FB81FA897B88E2
S31520002CA01343FB817B68FA891A8100BF1437BD461E
S31520002CB05DF8047B704780B483B000AF78600B4624
S31520002CC07B807B689B889BB223F070039AB27B68DB
S31520002CD09A807B689B889AB27B8813439AB27B68DA
S31520002CE09A8000BF0C37BD465DF8047B704780B4E0
S31520002CF083B000AF78600B467B807B681B899BB2D4
S31520002D0023F007039AB27B681A817B681B899AB2E3
S31520002D107B8813439AB27B681A8100BF0C37BD4665
S31520002D205DF8047B704780B483B000AF78600B46B3
S31520002D307B807B681B899BB223F080039AB27B68D9
S31520002D401A817B681B899AB27B8813439AB27B6867
S31520002D501A8100BF0C37BD465DF8047B704780B4EE
S31520002D6087B000AFF860084611461A4603467B81B5
S31520002D700B463B811346FB800023FB82FB681B89A5
S31520002D80FB82FB8ADBB2FB82FB881B029AB23B8961
S31520002D9013439AB27B8913439AB2FB8A1343FB826D
S31520002DA0FB68FA8A1A8100BF1C37BD465DF8047B92
S31520002DB0704780B487B000AFF860084611461A46BF
S31520002DC003467B810B463B811346FB800023FB8217
S31520002DD00023BB8200237B82FB681B89FB82FB6866
S31520002DE01B8BBB82FB681B8C7B82FB8A23F0070331
S31520002DF0FB82FA8A7B891343FB82BB8A23F44073C6
S31520002E0023F00303BB82BB8A43F4807343F00103A0
S31520002E10BB827B8A23F022037B82FB881B019AB22A
S31520002E203B8913439AB27B8A13437B82FB68FA8AD7
S31520002E301A81FB68BA8A1A83FB687A8A1A8400BFC9
S31520002E401C37BD465DF8047B704780B483B000AF65
S31520002E5078600B46FB70FB78002B08D07B689B883C
S31520002E609BB243F080039AB27B689A8007E07B6826
S31520002E709B889BB223F080039AB27B689A8000BF1E
S31520002E800C37BD465DF8047B704780B483B000AF35
S31520002E9078600B467B807B687A88A3F8502000BF39
S31520002EA00C37BD465DF8047B704780B487B000AF11
S31520002EB0F860084611461A4603467B810B463B813D
S31520002EC01346FB800023FB820023BB82FB681B8CFE
S31520002ED09BB223F001039AB2FB681A84FB681B8B12
S31520002EE0FB82FB681B8CBB82FB8A23F0F303FB82ED
S31520002EF0FB881B019AB23B8913439AB2FB8A134380
S31520002F00FB82BB8A23F00A03BB827A89BB8A1343DE
S31520002F109BB243F00103BB82FB68FA8A1A83FB68E3
S31520002F20BA8A1A8400BF1C37BD465DF8047B7047F9
S31520002F3080B487B000AFF860084611461A460346AB
S31520002F407B810B463B811346FB800023FB820023BB
S31520002F50BB8200237B82FB681B8C9BB223F0100371
S31520002F609AB2FB681A84FB681B8BFB82FB681B8C5E
S31520002F70BB827B891B017B82FB8A23F440731B0562
S31520002F801B0DFB82FB881B039AB2FB8A1343FB8231
S31520002F903B891B029AB2FB8A1343FB82BB8A23F02E
S31520002FA0A003BB827A8ABB8A13439BB243F01003E9
S31520002FB0BB82FB68FA8A1A83FB68BA8A1A8400BF26
S31520002FC01C37BD465DF8047B704780B487B000AFE0
S31520002FD0F860084611461A4603467B810B463B811C
S31520002FE01346FB800023FB820023BB8200237B82C7
S31520002FF0FB681B8C9BB223F480739AB2FB681A84FD
S31520003000FB689B8BFB82FB681B8CBB827B891B022C
S315200030107B82FB8A23F0F303FB82FB881B019AB297
S315200030203B8913439AB2FB8A1343FB82BB8A23F460
S315200030302063BB827A8ABB8A13439BB243F4807394
S31520003040BB82FB68FA8A9A83FB68BA8A1A8400BF15
S315200030501C37BD465DF8047B704780B487B000AF4F
S31520003060F860084611461A4603467B810B463B818B
S315200030701346FB800023FB820023BB8200237B8236
S31520003080FB681B8C9BB223F480539AB2FB681A848C
S31520003090FB689B8BFB82FB681B8CBB827B891B039B
S315200030A07B82FB8A23F440731B051B0DFB823B8925
S315200030B01B029AB2FB8A1343FB82FB881B039AB23C
S315200030C0FB8A1343FB82BB8A23F400535B045B0C0D
S315200030D0BB827A8ABB8A13439BB243F48053BB825A
S315200030E0FB68FA8A9A83FB68BA8A1A8400BF1C375F
S315200030F0BD465DF8047B7047314900E03149EFF366
S31520003100088020ED108A7246EFF3118320E9FC0F28
S315200031102D4FD7F80080C8F800001EE0084601F0C1
S315200031204BFF2A4801F048FF294801F045FFD8F80F
S31520003130040001F08BFF274801F03EFFD8F800007D
S3152000314001F056FF244801F037FFD8F80000006848
S3152000315001F04EFF1D4801F02FFFDFF88080D8F8E0
S315200031600080C7F8008018E01D4801F025FFD8F838
S31520003170040001F06BFF1B4801F01EFFD8F8000089
S3152000318001F036FF144801F017FFD8F80000006858
S3152000319001F02EFF0D4801F00FFF134A536843F04C
S315200031A00063536000BFD8F80000B0E8FC0F83F33B
S315200031B011889646B0EC108A80F308887047000084
S315200031C09C7D0020AD7D0020DC8400201D7E00201B
S315200031D0CE7D0020E67D0020EE7D00208486002026
S315200031E0F77D00200C7E002000ED00E080B400AFCB
S315200031F0164B1B68154A43F001031360134B00223C
S315200032009A60124B1B68114A23F0A85323F410230B
S3152000321013600E4B0E4A5A600C4B0E4AC3F884209C
S315200032200A4B0D4AC3F88820084B1B68074A23F42B
S3152000323080231360054B0022DA60044B0022C3F87A
S315200032408C2000BFBD465DF8047B704700380240E5
S3152000325010300024003000200030002480B483B0D9
S3152000326000AF0346FB71064B00221A70044AFB7915
S31520003270137000BF0C37BD465DF8047B704700BF56
S315200032800238024080B582B000AF00233B600023A5
S31520003290FB710023BB71312000F086FD0346BB7114
S315200032A03B6801333B603B68B3F5A04F02D0BB7946
S315200032B0002BF0D0312000F077FD0346002B02D002
S315200032C00123FB7101E00023FB71FB7918460837C7
S315200032D0BD4680BD80B485B000AF0346FB71002398
S315200032E0FB600A4B1B68FB60FB6823F0F803FB605E
S315200032F0FB79DB00FA681343FB60044AFB68136022
S3152000330000BF1437BD465DF8047B70470038024085
S3152000331080B483B000AF0346FB71044AFB79136087
S3152000332000BF0C37BD465DF8047B7047000047425E
S3152000333080B483B000AF0346FB710D4B00221A7098
S315200033400B4B00221A70FB79012B02D0042B04D0E0
S3152000335007E0074B01221A7003E0054B05221A707D
S3152000336000BF00BF0C37BD465DF8047B704700BF29
S315200033707038024080B483B000AF0346FB71044A24
S31520003380FB79136000BF0C37BD465DF8047B7047A0
S31520003390800E474280B485B000AFF860B9607A608D
S315200033A03B607B689A01BB681A433B685B08013B1C
S315200033B01B041A43FB681A43BB691B0604491343C3
S315200033C04B6000BF1437BD465DF8047B704700BFD5
S315200033D00038024080B483B000AF0346FB71044A34
S315200033E0FB79136000BF0C37BD465DF8047B704740
S315200033F06000474280B483B000AF786039607B6854
S315200034009A013B681B0705491343C1F8843000BF66
S315200034100C37BD465DF8047B704700BF003802407C
S3152000342080B483B000AF0346FB71044AFB79136076
S3152000343000BF0C37BD465DF8047B704768004742E5
S3152000344080B485B000AFF860B9607A60FB689A01F5
S31520003450BB681B061A437B681B0705491343C1F843
S31520003460883000BF1437BD465DF8047B704700BF27
S315200034700038024080B483B000AF0346FB71044A93
S31520003480FB79136000BF0C37BD465DF8047B70479F
S315200034907000474280B483B000AF0346FB71044AF4
S315200034A0FB79136000BF0C37BD465DF8047B70477F
S315200034B04C00474280B485B000AF78603960002365
S315200034C0FB600B4B9B68FB60FB6823F0EC63FB60A7
S315200034D07A683B681343FA681343FB60044AFB6827
S315200034E0936000BF1437BD465DF8047B704700BF6C
S315200034F00038024080B485B000AF78603960002380
S31520003500FB600B4B9B68FB60FB6823F07843FB60FA
S315200035107A683B681343FA681343FB60044AFB68E6
S31520003520936000BF1437BD465DF8047B704700BF2B
S315200035300038024080B485B000AF78600023FB607D
S31520003540094B9B68FB60FB6823F00303FB60FA686A
S315200035507B681343FB60044AFB68936000BF143703
S31520003560BD465DF8047B70470038024080B400AF4A
S31520003570054B9B68DBB203F00C03DBB21846BD4655
S315200035805DF8047B704700BF0038024080B485B0E8
S3152000359000AF78600023FB60094B9B68FB60FB68EB
S315200035A023F0F003FB60FA687B681343FB60044A50
S315200035B0FB68936000BF1437BD465DF8047B7047F7
S315200035C00038024080B485B000AF78600023FB60ED
S315200035D0094B9B68FB60FB6823F4E053FB60FA68A9
S315200035E07B681343FB60044AFB68936000BF143773
S315200035F0BD465DF8047B70470038024080B485B034
S3152000360000AF78600023FB600A4B9B68FB60FB6879
S3152000361023F46043FB607B68DB00FA681343FB609E
S31520003620044AFB68936000BF1437BD465DF8047BEF
S31520003630704700BF0038024080B489B000AF786080
S315200036400023BB6100237B610023FB6102233B61D6
S315200036500023FB600223BB60484B9B6803F00C03EE
S31520003660BB61BB69042B09D0BB69082B0AD0BB6997
S31520003670002B3DD17B68424A1A603DE07B68414A77
S315200036801A6039E03D4B5B689B0D03F00103FB603C
S315200036903A4B5B6803F03F03BB60FB68002B0CD002
S315200036A0384ABB68B2FBF3F3344A52689209C2F334
S315200036B0080202FB03F3FB610BE0314ABB68B2FB55
S315200036C0F3F32E4A52689209C2F3080202FB03F36F
S315200036D0FB612A4B5B681B0C03F0030301335B0081
S315200036E03B61FA693B69B2FBF3F27B681A6003E03F
S315200036F07B68234A1A6000BF204B9B6803F0F003C7
S31520003700BB61BB691B09BB611F4ABB6913441B789C
S31520003710DBB27B617B681A687B69DA407B685A601A
S31520003720164B9B6803F4E053BB61BB699B0ABB61E4
S31520003730154ABB6913441B78DBB27B617B685A68E8
S315200037407B69DA407B689A600C4B9B6803F4604384
S31520003750BB61BB695B0BBB610B4ABB6913441B781E
S31520003760DBB27B617B685A687B69DA407B68DA600A
S3152000377000BF2437BD465DF8047B70470038024001
S315200037800024F40000127A00207E002080B485B048
S3152000379000AF78600023FB607B6803F44073B3F5C9
S315200037A0407F11D10F4B9B68FB60FB6823F4F81315
S315200037B0FB607B6823F0704323F44073FA6813435D
S315200037C0FB60084AFB689360064B1A6F7B68C3F35D
S315200037D00B03044913430B6700BF1437BD465DF83E
S315200037E0047B70470038024080B483B000AF0346A4
S315200037F0FB71044AFB79136000BF0C37BD465DF8A8
S31520003800047B70473C0E474280B483B000AF03462A
S31520003810FB71044AFB79136000BF0C37BD465DF887
S31520003820047B7047400E474280B483B000AF786077
S31520003830044A7B68136000BF0C37BD465DF8047BE5
S31520003840704700BF5C01474280B485B000AF786006
S315200038500023FB600B4BD3F88C30FB60FB6823F016
S315200038601F03FB607B68013BFA681343FB60054A34
S31520003870FB68C2F88C3000BF1437BD465DF8047B68
S31520003880704700BF0038024080B485B000AF786032
S315200038900023FB600B4BD3F88C30FB60FB6823F4D2
S315200038A0F853FB607B68013B1B02FA681343FB60FD
S315200038B0044AFB68C2F88C3000BF1437BD465DF859
S315200038C0047B70470038024080B485B000AF786032
S315200038D00023FB600A4BD3F88C30FB60FB6823F493
S315200038E04013FB60FA687B681343FB60044AFB685D
S315200038F0C2F88C3000BF1437BD465DF8047B704794
S315200039000038024080B485B000AF78600023FB60A9
S315200039100A4BD3F88C30FB60FB6823F44003FB6032
S31520003920FA687B681343FB60044AFB68C2F88C3054
S3152000393000BF1437BD465DF8047B7047003802404F
S3152000394080B485B000AF78600023FB600A4BD3F8C3
S315200039508C30FB60FB6823F44033FB60FA687B689D
S315200039601343FB60044AFB68C2F88C3000BF14374F
S31520003970BD465DF8047B70470038024080B483B0B2
S3152000398000AF7860044A7B68136000BF0C37BD46E1
S315200039905DF8047B704700BFE011474280B483B0D6
S315200039A000AF78600B46FB70FB78002B06D00A4BE5
S315200039B01A6B09497B6813430B6306E0064B1A6BA7
S315200039C07B68DB43044913400B6300BF0C37BD46BD
S315200039D05DF8047B704700BF0038024080B483B096
S315200039E000AF78600B46FB70FB78002B06D00A4BA5
S315200039F05A6B09497B6813434B6306E0064B5A6BA7
S31520003A007B68DB43044913404B6300BF0C37BD463C
S31520003A105DF8047B704700BF0038024080B483B055
S31520003A2000AF78600B46FB70FB78002B06D00A4B64
S31520003A309A6B09497B6813438B6306E0064B9A6BA6
S31520003A407B68DB43044913408B6300BF0C37BD46BC
S31520003A505DF8047B704700BF0038024080B483B015
S31520003A6000AF78600B46FB70FB78002B06D00A4B24
S31520003A701A6C09497B6813430B6406E0064B1A6CE3
S31520003A807B68DB43044913400B6400BF0C37BD46FB
S31520003A905DF8047B704700BF0038024080B483B0D5
S31520003AA000AF78600B46FB70FB78002B06D00A4BE4
S31520003AB05A6C09497B6813434B6406E0064B5A6CE3
S31520003AC07B68DB43044913404B6400BF0C37BD467B
S31520003AD05DF8047B704700BF0038024080B483B095
S31520003AE000AF78600B46FB70FB78002B06D00A4BA4
S31520003AF01A6909497B6813430B6106E0064B1A696C
S31520003B007B68DB43044913400B6100BF0C37BD467D
S31520003B105DF8047B704700BF0038024080B483B054
S31520003B2000AF78600B46FB70FB78002B06D00A4B63
S31520003B305A6909497B6813434B6106E0064B5A696B
S31520003B407B68DB43044913404B6100BF0C37BD46FD
S31520003B505DF8047B704700BF0038024080B483B014
S31520003B6000AF78600B46FB70FB78002B06D00A4B23
S31520003B709A6909497B6813438B6106E0064B9A696B
S31520003B807B68DB43044913408B6100BF0C37BD467D
S31520003B905DF8047B704700BF0038024080B483B0D4
S31520003BA000AF78600B46FB70FB78002B06D00A4BE3
S31520003BB01A6A09497B6813430B6206E0064B1A6AA8
S31520003BC07B68DB43044913400B6200BF0C37BD46BC
S31520003BD05DF8047B704700BF0038024080B483B094
S31520003BE000AF78600B46FB70FB78002B06D00A4BA3
S31520003BF05A6A09497B6813434B6206E0064B5A6AA8
S31520003C007B68DB43044913404B6200BF0C37BD463B
S31520003C105DF8047B704700BF0038024080B483B053
S31520003C2000AF78600B46FB70FB78002B06D00A4B62
S31520003C301A6D09497B6813430B6506E0064B1A6D1E
S31520003C407B68DB43044913400B6500BF0C37BD4638
S31520003C505DF8047B704700BF0038024080B483B013
S31520003C6000AF78600B46FB70FB78002B06D00A4B22
S31520003C705A6D09497B6813434B6506E0064B5A6D1E
S31520003C807B68DB43044913404B6500BF0C37BD46B8
S31520003C905DF8047B704700BF0038024080B483B0D3
S31520003CA000AF78600B46FB70FB78002B06D00A4BE2
S31520003CB09A6D09497B6813438B6506E0064B9A6D1E
S31520003CC07B68DB43044913408B6500BF0C37BD4638
S31520003CD05DF8047B704700BF0038024080B483B093
S31520003CE000AF78600B46FB70FB78002B06D00A4BA2
S31520003CF01A6E09497B6813430B6606E0064B1A6E5B
S31520003D007B68DB43044913400B6600BF0C37BD4676
S31520003D105DF8047B704700BF0038024080B483B052
S31520003D2000AF78600B46FB70FB78002B06D00A4B61
S31520003D305A6E09497B6813434B6606E0064B5A6E5A
S31520003D407B68DB43044913404B6600BF0C37BD46F6
S31520003D505DF8047B704700BF0038024080B483B012
S31520003D6000AF03460A46FB711346BB71BB79002B95
S31520003D7008D00C4B1B78DAB20A49FB791343DBB225
S31520003D800B7009E0074B1B78DAB2FB79DB43DBB219
S31520003D9004491340DBB20B7000BF0C37BD465DF8FB
S31520003DA0047B70470D38024080B487B000AF0346CD
S31520003DB0FB710023FB6000237B610023FB74FB79EE
S31520003DC05B09DBB2FB60FB68012B03D1124B1B683E
S31520003DD07B6109E0FB68022B03D10F4B1B6F7B61D4
S31520003DE002E00D4B5B6F7B61FB7903F01F03FB60E9
S31520003DF07A69FB6822FA03F303F00103002B02D051
S31520003E000123FB7401E00023FB74FB7C18461C375E
S31520003E10BD465DF8047B70470038024080B400AF91
S31520003E20054B5B6F044A43F08073536700BFBD4662
S31520003E305DF8047B704700BF0038024080B485B02F
S31520003E4000AF0346FB710023FB73094BDA68FB794D
S31520003E501340002B02D00123FB7301E00023FB73E8
S31520003E60FB7B18461437BD465DF8047B704700BFC0
S31520003E700038024080B483B000AF0346FB71044A89
S31520003E80FB79137000BF0C37BD465DF8047B704785
S31520003E900E38024080B483B000AFEFF314833B604A
S31520003EA03B6823F003037B607B6883F314880A4B0B
S31520003EB04FF404725A61084B5B69074A43F00803C2
S31520003EC05361064B4FF000425A6000BF0C37BD4687
S31520003ED05DF8047B704700BF00ED00E030EF00E0A6
S31520003EE080B400AF174A02E0002342F8043B164B89
S31520003EF09A42F9D300BFBD465DF8047B704780B572
S31520003F0000AFFFF7EDFF074B1B68074A934202D12C
S31520003F10064B984702E0064801F04EF8FFF7BAFF35
S31520003F2000BF80BD10020008ABACAB001502000834
S31520003F30A079002080B400AF00BFBD465DF8047BA9
S31520003F407047000048850020E009012080B582B036
S31520003F5000AF78607B684B4A934208D1012101204B
S31520003F60FFF7BCFD00210120FFF7B8FD86E07B6846
S31520003F70454A934208D101210220FFF7AFFD0021D7
S31520003F800220FFF7ABFD79E07B68404A934208D1D7
S31520003F9001210420FFF7A2FD00210420FFF79EFD4A
S31520003FA06CE07B683A4A934208D101210820FFF74A
S31520003FB095FD00210820FFF791FD5FE07B68354ADB
S31520003FC0934208D101211020FFF788FD00211020FF
S31520003FD0FFF784FD52E07B682F4A934208D10121E6
S31520003FE02020FFF77BFD00212020FFF777FD45E00D
S31520003FF07B682A4A934208D101214020FFF76EFDB3
S3152000400000214020FFF76AFD38E07B68244A93426E
S3152000401008D101218020FFF761FD00218020FFF7D4
S315200040205DFD2BE07B681F4A93420AD101214FF4A4
S315200040308070FFF753FD00214FF48070FFF74EFD8F
S315200040401CE07B68184A93420AD101214FF4007084
S31520004050FFF744FD00214FF40070FFF73FFD0DE010
S315200040607B68124A934209D101214FF48060FFF701
S3152000407035FD00214FF48060FFF730FD00BF083783
S31520004080BD4680BD000002400004024000080240F8
S31520004090000C0240001002400014024000180240AA
S315200040A0001C02400020024000240240002802405A
S315200040B080B487B000AF7860396000237B6100232D
S315200040C03B610023FB6000237B6176E001227B6954
S315200040D002FA03F33B613B681B683A691340FB60B5
S315200040E0FA683B699A4265D17B681A687B695B00EE
S315200040F0032101FA03F3DB431A407B681A607B68CD
S315200041001A683B681B7919467B695B0001FA03F341
S315200041101A437B681A603B681B79012B03D03B68E6
S315200041201B79022B2ED17B689A687B695B00032161
S3152000413001FA03F3DB431A407B689A607B689A682E
S315200041403B685B7919467B695B0001FA03F31A43E6
S315200041507B689A607B685A687B699BB21946012303
S315200041608B40DB431A407B685A607B685B683A6801
S31520004170927911467A6992B201FA02F292B21A4300
S315200041807B685A607B68DA687B699BB25B00032197
S3152000419001FA03F3DB431A407B68DA607B68DA684E
S315200041A03B68DB7919467B695B0001FA03F31A4306
S315200041B07B68DA607B6901337B617B690F2B85D94C
S315200041C000BF1C37BD465DF8047B704780B483B0C2
S315200041D000AF78607B684FF6FF721A607B6800221A
S315200041E01A717B6800225A717B6800229A717B685B
S315200041F00022DA7100BF0C37BD465DF8047B70479C
S3152000420080B485B000AF78600B467B804FF4803356
S31520004210FB607A88FB681343FB60FA687B68DA6187
S315200042207A887B68DA61FA687B68DA617B68DB69A1
S31520004230FB607B68DB69FB6000BF1437BD465DF819
S31520004240047B704780B485B000AF78600B467B80D6
S315200042500023FB737B681A697B881340002B02D0EE
S315200042600123FB7301E00023FB73FB7B1846143705
S31520004270BD465DF8047B704780B483B000AF78609C
S315200042807B681B699BB218460C37BD465DF8047BDC
S31520004290704780B485B000AF78600B467B800023E2
S315200042A0FB737B685A697B881340002B02D001235D
S315200042B0FB7301E00023FB73FB7B18461437BD46D6
S315200042C05DF8047B704780B483B000AF78607B686C
S315200042D05B699BB218460C37BD465DF8047B704778
S315200042E080B483B000AF78600B467B807B687A8889
S315200042F01A8300BF0C37BD465DF8047B704780B437
S3152000430083B000AF78600B467B807B687A885A83BF
S3152000431000BF0C37BD465DF8047B704780B483B080
S3152000432000AF78600B467B8013467B707B78002B32
S3152000433003D07B687A881A8302E07B687A885A835E
S3152000434000BF0C37BD465DF8047B704780B483B050
S3152000435000AF78600B467B807A887B685A6100BF05
S315200043600C37BD465DF8047B704780B483B000AF40
S3152000437078600B467B807B685A697B885A407B68CD
S315200043805A6100BF0C37BD465DF8047B704780B488
S3152000439085B000AF78600B467B8013467B70002388
S315200043A0FB600023BB607A787B8803F007039B00C1
S315200043B002FA03F3FB607B88DB089BB21A467B6814
S315200043C0083253F822207B8803F007039B000F2135
S315200043D001FA03F3DB437988C90889B2084602EA61
S315200043E003017B6800F1080243F822107B88DB0872
S315200043F09BB21A467B68083253F82230FA68134378
S31520004400BB607B88DB089BB21A467B680832B9689A
S3152000441043F8221000BF1437BD465DF8047B704771
S3152000442080B483B000AF0346FB71FB7903F01F0312
S31520004430012202FA03F1064A97F907305B0942F88E
S31520004440231000BF0C37BD465DF8047B704700BFC4
S3152000445000E100E080B483B000AF03463960FB7111
S3152000446097F90730002B0BDA3B68DAB20C49FB7957
S3152000447003F00F03043B1201D2B20B441A7609E073
S315200044803B68DAB2074997F907301201D2B20B44DA
S3152000449083F8002300BF0C37BD465DF8047B7047C8
S315200044A000ED00E000E100E080B582B000AF78606A
S315200044B03960002201210748FFF730FF022117202B
S315200044C0FFF7C8FF1720FFF7ABFF00BF0837BD4631
S315200044D080BD00BF0004024080B582B000AF786086
S315200044E039607B689B6880211846FFF7ABFE034640
S315200044F018460837BD4680BD80B582B000AF7860CB
S3152000450039607B689B683A68D2B201211846FFF76A
S3152000451005FF00BF0837BD4680BD80B582B000AF1D
S31520004520786039607B689B6801211846FFF71DFF7C
S3152000453000BF0837BD4680BD80B584B002AF786025
S3152000454039608020FBF748FE0346012B15D18020D9
S31520004550FBF75CFE7B68DB68002B11D07B68DA6892
S315200045607B681969002300930B460021002001F087
S315200045705BF9064B01221A6002E0054800F01CFD9B
S31520004580002318460837BD4680BD00BF5886002048
S31520004590E479002080B483B000AF78607B68064A57
S315200045A082FB03125211DB17D31A18460C37BD466D
S315200045B05DF8047B704700BF1F85EB5180B594B032
S315200045C000AF786039607B685A697B689B69D31A2B
S315200045D0FB647B685A697B68DB69D31ABB647B689A
S315200045E09A697B68DB69D31A7B64FB6C13F1630FD2
S315200045F05CDBFB6C632B59DCBB6C13F1630F55DB67
S31520004600BB6C632B52DC7B6C13F1630F4EDB7B6C34
S31520004610632B4BDC7B685A697B689B691A447B68F1
S31520004620DB691344264A82FB0312DB17D31A3B6449
S315200046304EF660223B6C92FBF3F3FB63FB6B1D2B68
S3152000464025DDFB6BB3F5967F21DC07F108003B6C7B
S315200046501C4A642102F0FCFB07F108031A461A499A
S315200046601A4801F07FF907F10800FB6B184A64210C
S3152000467002F0EEFB07F108031A461349134801F02E
S3152000468071F9FA6B1349144801F06CF914E007F13B
S315200046900800FB6B114A642102F0DAFB07F10803DC
S315200046A01A460949094801F05DF905E00C4B1A46FE
S315200046B00549064801F056F900BF5037BD4680BD72
S315200046C056555555087A00207B1300200C80002073
S315200046D01C7A00201F4D0020F47F0020347A002011
S315200046E05C7A002090B59DB000AF786039607B6819
S315200046F0DB68002B2ED101F053FA03461846FFF74C
S3152000470049FF02467B681A617B680122DA607B6872
S315200047109B6801335A4203F07F0302F07F0258BFA1
S3152000472053427A6893607B689B685A4203F003037E
S3152000473002F0030258BF534207F10C00364A6421A7
S3152000474002F086FB07F10C031A463449344801F07F
S3152000475009F95CE001F024FA0346324A82FB03128F
S315200047605211DB17D21A7B681B69D31A642B4EDDD4
S315200047707B689B6801335A4203F07F0302F07F0275
S3152000478058BF53427A6893607B689B685A4203F00D
S31520004790030302F0030258BF534207F10C001E4ADE
S315200047A0642102F055FB07F10C031A461B491C48ED
S315200047B001F0D8F801F0F4F903461846FFF7EAFEAF
S315200047C004467B6818697B689968174B83FB01321E
S315200047D0CB17D21A13465B001344CA1A211A7868DB
S315200047E0131D9B00034459607B689B6803F00303F9
S315200047F0002B03D100217868FFF7E0FE01F0D0F905
S3152000480003461846FFF7C6FE02467B681A6100BFBC
S315200048107437BD4690BD00BF787A00207B130020F8
S315200048200C8000201F85EB515655555580B588B014
S3152000483002AF7860396007F10C031A462E492F48DB
S3152000484001F090F83B7B052B09D17B7B0F2B06D102
S315200048502B4B1A462B492C4801F084F80BE03B7B66
S31520004860062B08D17B7B0F2B05D1284B1A462549D1
S31520004870254801F077F87B68D3F8AC30002B26D199
S3152000488001F08EF903461846FFF784FE02467B6840
S31520004890C3F8B0207B680122C3F8AC203B7B1A46C4
S315200048A01B491C4801F05EF80346B3F1FF3F05D1D2
S315200048B0194B1A461349144801F054F80023009363
S315200048C0164B7A680021002000F0AEFF0FE03B7BFC
S315200048D01A460F490F4801F045F80346B3F1FF3F4A
S315200048E005D10D4B1A460749074801F03BF800BF92
S315200048F01837BD4680BD00BFB96B00202C84002030
S315200049008C7A00207B1300200C800020A87A0020BF
S31520004910B15E00201C860020C47A00202149002098
S3152000492080B59EB002AF786039600021104801F052
S31520004930F1FAF866FB6EB3F1FF3F0DD007F10800E0
S31520004940FB6E0C4A642102F083FA07F108031A462B
S3152000495009490A4801F006F800230093084B7A68B3
S315200049600021084800F060FF00BF7037BD4680BDBB
S315200049701C860020D47A00207B1300200C80002087
S3152000498021490020A086010080B584B000AF786060
S3152000499039603A683449354800F0E4FF344B1A460A
S315200049A03449324800F0DEFF3B68742B18D1324B75
S315200049B01B68002B14D07B689B687A6813440022FE
S315200049C05A757B681533184602F00AFAF8607B6838
S315200049D000229A60FA682949294800F0C3FF3FE07F
S315200049E03B686B2B18D1244B1B68002B14D07B689B
S315200049F09B687A68134400225A757B6815331846DB
S31520004A0002F0EEF9B8607B6800229A60BA681D4908
S31520004A101D4800F0A7FF23E03B68702B09D1164BF9
S31520004A201B68002B05D000221849154800F09AFF74
S31520004A3016E03B68732B05D100221549104800F07B
S31520004A4091FF0DE07B689B683A68D1B27A6813447F
S31520004A500A465A757B689B685A1C7B689A60FFE7F2
S31520004A6000BF1037BD4680BDCF1300200C8000202C
S31520004A70E87A00207B130020347E00201F4D002082
S31520004A80F47F0020014D00209C7F0020754C0020E3
S31520004A90734D002080B584B002AF786039607B68A2
S31520004AA01B6A002B0FD1114B1B681B78002B04D0DF
S31520004AB00E4B1B6800221A7005E07B68DA680B4BE8
S31520004AC01B68D2B21A707B689B68094A82FB031264
S31520004AD09210DB17D01A00230093064B7A68002128
S31520004AE000F0A2FE00BF0837BD4680BD307E002004
S31520004AF067666666954A002080B584B002AF786006
S31520004B0039607B689B684EF6602292FBF3F3642241
S31520004B1002FB03F000230093164B174A002100F0F6
S31520004B2083FE7B689B684EF6602292FBF3F3DA0FD6
S31520004B3013445B101A46642303FB02F001230093FF
S31520004B400C4B0D4A002100F06FFE7B689B684EF6E9
S31520004B50602292FBF3F3642202FB03F0002300930E
S31520004B60064B7A68002100F05FFE00BF0837BD467D
S31520004B7080BD00BF1B450020A8840020F94A0020E4
S31520004B8080B584B002AF786039607B6801225A61B3
S31520004B907B681B69002B5DD10021304800F0CDF8E1
S31520004BA07B68DB6819462D4800F08EF87B689B6889
S31520004BB04EF6602292FBF3F307EE903AB8EEE77AD0
S31520004BC07B68DB68264A9B001344D3ED007A67EEA8
S31520004BD0277A9FED247A77EEC77A9FED237A67EEC0
S31520004BE0877AFDEEE77A00230093204B1B4A0021AB
S31520004BF017EE900A00F018FE7B689B684EF660223E
S31520004C0092FBF3F307EE903AB8EEE77A7B68DB681F
S31520004C10134A9B001344D3ED007A67EE277A9FED63
S31520004C20127A67EE877AFDEEE77A00230093104B1F
S31520004C307A68002117EE900A00F0F6FD7B68DB68A3
S31520004C4001335A4203F01F0302F01F0258BF53429A
S31520004C507A68D36000BF0837BD4680BD9C7F0020A0
S31520004C601C7F0020000048420000C842574D00200B
S31520004C70814B002080B582B000AF78603960002279
S31520004C800D49786800F06EFE7B685B69002B05D0C5
S31520004C9000220A49786800F065FE09E000220849EA
S31520004CA0084800F05FFE00220449786800F05AFEAA
S31520004CB000BF0837BD4680BD9D4D0020814B00209A
S31520004CC0954A00209C7F002080B483B000AF786096
S31520004CD03960094A3B6852F823207B689B6A134453
S31520004CE00A33064A52F823207B689A6000BF0C37A5
S31520004CF0BD465DF8047B7047387E0020B87E0020D4
S31520004D0080B483B000AF786039603B685A1F7B68F7
S31520004D109A6200BF0C37BD465DF8047B704780B4AD
S31520004D2083B000AF786039607B683A689A6000BFCC
S31520004D300C37BD465DF8047B704780B483B000AF66
S31520004D40786039607B6800221A6200BF0C37BD4646
S31520004D505DF8047B704780B483B000AF786039601B
S31520004D607B6801221A6200BF0C37BD465DF8047BC2
S31520004D70704780B582B000AF786039607B680122C9
S31520004D801A617B680022DA6000210348FFF7E3FFFF
S31520004D9000BF0837BD4680BD9C7F002080B483B00D
S31520004DA000AF786039607B6800221A6100BF0C373B
S31520004DB0BD465DF8047B704780B582B000AF786051
S31520004DC00B46FB70FB786D2B18D0752B02D0642B0D
S31520004DD00AD01FE07B68DB68132B22DC7B68DB684C
S31520004DE05A1C7B68DA601CE07B68DB68052B1ADDC1
S31520004DF07B68DB685A1E7B68DA6014E07B68DB68B8
S31520004E00002B03D17B680522DA600DE07B68002247
S31520004E10DA6009E0064B1A460649074800F0A2FD6B
S31520004E2002E000BF00E000BF00BF0837BD4680BDDE
S31520004E30EC7A00207B1300200C80002080B584B003
S31520004E4002AF7860396000221749184800F08AFDC1
S31520004E5000221749174800F085FD002216491748F9
S31520004E6000F080FD164B1A461649124800F07AFDCE
S31520004E7000230093144B154A0021002000F0D4FC97
S31520004E8000230093124B134A0021002000F0CCFC93
S31520004E9000230093104B0D4A0021002000F0C4FC93
S31520004EA000BF0837BD4680BD716900202C840020D4
S31520004EB0D51200200C800020A9440020A8840020C0
S31520004EC0087B00207B130020814B0020F47F0020EC
S31520004ED0954A00209C7F0020F94A002080B500AF2B
S31520004EE000220B490B4800F04DFF01220A490B48CE
S31520004EF000F048FF02220A490A4800F043FF002238
S31520004F0009490A4800F0A2FF0023184680BD00BFC9
S31520004F10051400200C800020316A00202C840020FB
S31520004F2039450020A88400203D4E002048850020D9
S31520004F3080B483B000AF0346FB71FB7903F01F03F7
S31520004F40012202FA03F1064A97F907305B0942F873
S31520004F50231000BF0C37BD465DF8047B704700BFA9
S31520004F6000E100E080B483B000AF03463960FB71F6
S31520004F7097F90730002B0BDA3B68DAB20C49FB793C
S31520004F8003F00F03043B1201D2B20B441A7609E058
S31520004F903B68DAB2074997F907301201D2B20B44BF
S31520004FA083F8002300BF0C37BD465DF8047B7047AD
S31520004FB000ED00E000E100E080B582B000AF78604F
S31520004FC00EE07B681B780D2B07D07B685A1C7A6015
S31520004FD01B78184600F05CF902E07B6801337B60A1
S31520004FE07B681B78002BECD100BF0837BD4680BDFF
S31520004FF080B586B000AF786000237B617B6803F0C4
S315200050000F027B69591C79610F498A5C07F11801E7
S315200050100B4403F80C2C7B681B097B607B68002BF8
S31520005020ECD10AE07B69013B7B6107F10C027B69CD
S3152000503013441B78184600F02BF97B69002BF1D11D
S3152000504000BF1837BD4680BDBC84002080B59EB009
S3152000505000AF78607B68002B02DA4FF0FF3300E068
S3152000506001233B677B683A6F02FB03F37B600023D7
S315200050707B6779681C4B83FB01239A10CB17D21AC6
S3152000508013469B0013445B00CA1A7B6F591C796731
S3152000509016498A5C07F178010B4403F86C2C7B686F
S315200050A0114A82FB03129210DB17D31A7B607B68AE
S315200050B0002BDED13B6F002B0EDA2D2000F0E8F816
S315200050C00AE07B6F013B7B6707F10C027B6F134481
S315200050D01B78184600F0DCF87B6F002BF1D100BF5F
S315200050E07837BD4680BD00BF67666666BC840020F3
S315200050F080B483B000AF10237B607B6883F3118874
S3152000510000BF0C37BD465DF8047B704780B483B082
S3152000511000AF30237B607B6883F3118800BF0C3798
S31520005120BD465DF8047B704780B584B000AF7860DB
S315200051300B48FFF741FF0B4B1B68002B02D1094B95
S31520005140094A1A60074B1B68FB60064B1A687B6886
S315200051501344044A1360FB6818461037BD4680BDC9
S31520005160307B0020C8890020E009012080B485B06A
S3152000517000AF786039603B6803F5F95310337A68DD
S3152000518013607B681B68BB600023FB600AE0FB683A
S315200051909B001A46BB6813441A4600231360FB681B
S315200051A00133FB60FB68332BF1DDBB686FF0160221
S315200051B01A60BB6804331A4603231360BB68843322
S315200051C01A464FF08073136000BF1437BD465DF852
S315200051D0047B704780B485B000AF786039607B6807
S315200051E01B688033FB60FB683A681A6000BF14377F
S315200051F0BD465DF8047B704780B584B000AF1D487E
S31520005200FCF76EF93B1D1846FCF7B6FA40F2473319
S31520005210BB803B1D19461748FCF742FA164B174A26
S315200052201A6002216FF00100FFF79CFE144B154A0D
S315200052301A6000216FF00400FFF794FE124B134A08
S315200052401A6002213220FFF78DFE3220FFF770FE12
S3152000525000210848FCF7DAFA01210648FCF7A3FBEF
S31520005260012202210348FDF771FB00BF1037BD461E
S3152000527080BD00BF000C004038C00120FD3000205A
S315200052802CC00120F930002008C10120175600202B
S3152000529080B582B000AF0346FB71FB799BB21946FD
S315200052A0074801F08CF800BF8021054801F076FA06
S315200052B00346002BF8D000BF0837BD4680BD00BF8F
S315200052C00010014080B500AF1248FCF7BBFA034638
S315200052D01A46114B1A60114B01221A60104B0022FC
S315200052E01A60104B1B68002B06D00E4B1B680E4A0B
S315200052F01268002110469847084B00221A60084B76
S315200053001B68002B01D000F05DFA054B00221A60C5
S3152000531000BF80BD000C0040688600206486002007
S3152000532058860020D88600207886002080B500AFD9
S315200053301248FCF787FA03461A46114B1A60114B9E
S3152000534001221A60104B00221A60104B5B68002B5A
S3152000535006D00E4B5B680E4A5268012110469847CC
S31520005360084B00221A60084B1B68002B01D000F066
S3152000537029FA054B00221A6000BF80BD000C0040B0
S31520005380688600206486002058860020D886002063
S315200053907886002080B500AF1248FCF753FA034602
S315200053A01A46114B1A60114B01221A60104B00222B
S315200053B01A60104B9B68002B06D00E4B9B680E4A3A
S315200053C09268022110469847084B00221A60084B23
S315200053D01B68002B01D000F0F5F9054B00221A605E
S315200053E000BF80BD000C0040688600206486002037
S315200053F058860020D88600207886002080B485B084
S3152000540000AF786039600023FB603B681B68BB6097
S3152000541004E0BB68FB60BB681B68BB60BB68002BF5
S3152000542005D0BB689A687B689B689A42F1DD7B68E9
S31520005430BA681A60FB68002B03D13B687A681A6049
S3152000544002E0FB687A681A6000BF1437BD465DF833
S31520005450047B704780B485B000AF78603960002344
S31520005460FB603B681B68BB6004E0BB68FB60BB68F5
S315200054701B68BB60BB68002B05D0BB685A687B687D
S315200054805B689A42F1DD7B68BA681A60FB68002B7C
S3152000549003D13B687A681A6002E0FB687A681A6072
S315200054A000BF1437BD465DF8047B704780B584B0D5
S315200054B000AF78607B681B68FB60FB68002B04D01C
S315200054C0FB681A687B681A600CE00948FFF774FDD0
S315200054D0002202210748FEF721FF0748FFF76CFD4F
S315200054E030BFFDE7FB6818461037BD4680BD00BFBC
S315200054F0487B002000040240547B002080B584B005
